{
  "contractName": "ERC20MintableBurnable",
  "abi": [
    {
      "inputs": [
        {
          "internalType": "string",
          "name": "_name",
          "type": "string"
        },
        {
          "internalType": "string",
          "name": "_symbol",
          "type": "string"
        },
        {
          "internalType": "uint8",
          "name": "decimals_",
          "type": "uint8"
        },
        {
          "internalType": "uint256",
          "name": "_initialSupply",
          "type": "uint256"
        },
        {
          "internalType": "uint256",
          "name": "_tokenPrice",
          "type": "uint256"
        },
        {
          "internalType": "bool",
          "name": "_antibot",
          "type": "bool"
        },
        {
          "internalType": "uint112",
          "name": "_startTime",
          "type": "uint112"
        },
        {
          "internalType": "uint112",
          "name": "_endTime",
          "type": "uint112"
        }
      ],
      "stateMutability": "nonpayable",
      "type": "constructor"
    },
    {
      "anonymous": false,
      "inputs": [
        {
          "indexed": true,
          "internalType": "address",
          "name": "owner",
          "type": "address"
        },
        {
          "indexed": true,
          "internalType": "address",
          "name": "spender",
          "type": "address"
        },
        {
          "indexed": false,
          "internalType": "uint256",
          "name": "value",
          "type": "uint256"
        }
      ],
      "name": "Approval",
      "type": "event"
    },
    {
      "anonymous": false,
      "inputs": [
        {
          "indexed": false,
          "internalType": "address",
          "name": "to",
          "type": "address"
        },
        {
          "indexed": false,
          "internalType": "uint256",
          "name": "ethAmount",
          "type": "uint256"
        },
        {
          "indexed": false,
          "internalType": "uint256",
          "name": "tokenAmount",
          "type": "uint256"
        },
        {
          "indexed": false,
          "internalType": "uint256",
          "name": "timestamp",
          "type": "uint256"
        }
      ],
      "name": "BuyToken",
      "type": "event"
    },
    {
      "anonymous": false,
      "inputs": [
        {
          "indexed": true,
          "internalType": "address",
          "name": "previousOwner",
          "type": "address"
        },
        {
          "indexed": true,
          "internalType": "address",
          "name": "newOwner",
          "type": "address"
        }
      ],
      "name": "OwnershipTransferred",
      "type": "event"
    },
    {
      "anonymous": false,
      "inputs": [
        {
          "indexed": true,
          "internalType": "address",
          "name": "from",
          "type": "address"
        },
        {
          "indexed": true,
          "internalType": "address",
          "name": "to",
          "type": "address"
        },
        {
          "indexed": false,
          "internalType": "uint256",
          "name": "value",
          "type": "uint256"
        }
      ],
      "name": "Transfer",
      "type": "event"
    },
    {
      "inputs": [
        {
          "internalType": "address",
          "name": "owner",
          "type": "address"
        },
        {
          "internalType": "address",
          "name": "spender",
          "type": "address"
        }
      ],
      "name": "allowance",
      "outputs": [
        {
          "internalType": "uint256",
          "name": "",
          "type": "uint256"
        }
      ],
      "stateMutability": "view",
      "type": "function"
    },
    {
      "inputs": [],
      "name": "antibot",
      "outputs": [
        {
          "internalType": "bool",
          "name": "",
          "type": "bool"
        }
      ],
      "stateMutability": "view",
      "type": "function"
    },
    {
      "inputs": [
        {
          "internalType": "address",
          "name": "spender",
          "type": "address"
        },
        {
          "internalType": "uint256",
          "name": "amount",
          "type": "uint256"
        }
      ],
      "name": "approve",
      "outputs": [
        {
          "internalType": "bool",
          "name": "",
          "type": "bool"
        }
      ],
      "stateMutability": "nonpayable",
      "type": "function"
    },
    {
      "inputs": [
        {
          "internalType": "address",
          "name": "account",
          "type": "address"
        }
      ],
      "name": "balanceOf",
      "outputs": [
        {
          "internalType": "uint256",
          "name": "",
          "type": "uint256"
        }
      ],
      "stateMutability": "view",
      "type": "function"
    },
    {
      "inputs": [
        {
          "internalType": "address",
          "name": "spender",
          "type": "address"
        },
        {
          "internalType": "uint256",
          "name": "subtractedValue",
          "type": "uint256"
        }
      ],
      "name": "decreaseAllowance",
      "outputs": [
        {
          "internalType": "bool",
          "name": "",
          "type": "bool"
        }
      ],
      "stateMutability": "nonpayable",
      "type": "function"
    },
    {
      "inputs": [],
      "name": "endTime",
      "outputs": [
        {
          "internalType": "uint112",
          "name": "",
          "type": "uint112"
        }
      ],
      "stateMutability": "view",
      "type": "function"
    },
    {
      "inputs": [
        {
          "internalType": "address",
          "name": "spender",
          "type": "address"
        },
        {
          "internalType": "uint256",
          "name": "addedValue",
          "type": "uint256"
        }
      ],
      "name": "increaseAllowance",
      "outputs": [
        {
          "internalType": "bool",
          "name": "",
          "type": "bool"
        }
      ],
      "stateMutability": "nonpayable",
      "type": "function"
    },
    {
      "inputs": [],
      "name": "initialSupply",
      "outputs": [
        {
          "internalType": "uint256",
          "name": "",
          "type": "uint256"
        }
      ],
      "stateMutability": "view",
      "type": "function"
    },
    {
      "inputs": [],
      "name": "name",
      "outputs": [
        {
          "internalType": "string",
          "name": "",
          "type": "string"
        }
      ],
      "stateMutability": "view",
      "type": "function"
    },
    {
      "inputs": [],
      "name": "owner",
      "outputs": [
        {
          "internalType": "address",
          "name": "",
          "type": "address"
        }
      ],
      "stateMutability": "view",
      "type": "function"
    },
    {
      "inputs": [],
      "name": "renounceOwnership",
      "outputs": [],
      "stateMutability": "nonpayable",
      "type": "function"
    },
    {
      "inputs": [],
      "name": "startTime",
      "outputs": [
        {
          "internalType": "uint112",
          "name": "",
          "type": "uint112"
        }
      ],
      "stateMutability": "view",
      "type": "function"
    },
    {
      "inputs": [],
      "name": "symbol",
      "outputs": [
        {
          "internalType": "string",
          "name": "",
          "type": "string"
        }
      ],
      "stateMutability": "view",
      "type": "function"
    },
    {
      "inputs": [],
      "name": "tokenPrice",
      "outputs": [
        {
          "internalType": "uint256",
          "name": "",
          "type": "uint256"
        }
      ],
      "stateMutability": "view",
      "type": "function"
    },
    {
      "inputs": [],
      "name": "totalSupply",
      "outputs": [
        {
          "internalType": "uint256",
          "name": "",
          "type": "uint256"
        }
      ],
      "stateMutability": "view",
      "type": "function"
    },
    {
      "inputs": [
        {
          "internalType": "address",
          "name": "to",
          "type": "address"
        },
        {
          "internalType": "uint256",
          "name": "amount",
          "type": "uint256"
        }
      ],
      "name": "transfer",
      "outputs": [
        {
          "internalType": "bool",
          "name": "",
          "type": "bool"
        }
      ],
      "stateMutability": "nonpayable",
      "type": "function"
    },
    {
      "inputs": [
        {
          "internalType": "address",
          "name": "from",
          "type": "address"
        },
        {
          "internalType": "address",
          "name": "to",
          "type": "address"
        },
        {
          "internalType": "uint256",
          "name": "amount",
          "type": "uint256"
        }
      ],
      "name": "transferFrom",
      "outputs": [
        {
          "internalType": "bool",
          "name": "",
          "type": "bool"
        }
      ],
      "stateMutability": "nonpayable",
      "type": "function"
    },
    {
      "inputs": [
        {
          "internalType": "address",
          "name": "newOwner",
          "type": "address"
        }
      ],
      "name": "transferOwnership",
      "outputs": [],
      "stateMutability": "nonpayable",
      "type": "function"
    },
    {
      "inputs": [],
      "name": "decimals",
      "outputs": [
        {
          "internalType": "uint8",
          "name": "",
          "type": "uint8"
        }
      ],
      "stateMutability": "view",
      "type": "function"
    },
    {
      "inputs": [
        {
          "internalType": "uint256",
          "name": "_amount",
          "type": "uint256"
        }
      ],
      "name": "burn",
      "outputs": [],
      "stateMutability": "nonpayable",
      "type": "function"
    },
    {
      "inputs": [
        {
          "internalType": "address",
          "name": "_address",
          "type": "address"
        },
        {
          "internalType": "uint256",
          "name": "_amount",
          "type": "uint256"
        }
      ],
      "name": "mint",
      "outputs": [],
      "stateMutability": "nonpayable",
      "type": "function"
    },
    {
      "inputs": [],
      "name": "buyToken",
      "outputs": [
        {
          "internalType": "bool",
          "name": "",
          "type": "bool"
        }
      ],
      "stateMutability": "payable",
      "type": "function"
    },
    {
      "inputs": [],
      "name": "withdrawUnsold",
      "outputs": [],
      "stateMutability": "nonpayable",
      "type": "function"
    },
    {
      "inputs": [
        {
          "internalType": "bool",
          "name": "_newState",
          "type": "bool"
        }
      ],
      "name": "setAntibot",
      "outputs": [],
      "stateMutability": "nonpayable",
      "type": "function"
    }
  ],
  "bytecode": "0x60806040523480156200001157600080fd5b5060405162002e1038038062002e108339818101604052810190620000379190620006f8565b8787816003908051906020019062000051929190620003aa565b5080600490805190602001906200006a929190620003aa565b5050506200008d620000816200015a60201b60201c565b6200016260201b60201c565b856008601d6101000a81548160ff021916908360ff160217905550836006819055508460078190555082600860006101000a81548160ff02191690831515021790555081600860016101000a8154816dffffffffffffffffffffffffffff02191690836dffffffffffffffffffffffffffff160217905550806008600f6101000a8154816dffffffffffffffffffffffffffff02191690836dffffffffffffffffffffffffffff1602179055506200014c30866200022860201b60201c565b5050505050505050620009a0565b600033905090565b6000600560009054906101000a900473ffffffffffffffffffffffffffffffffffffffff16905081600560006101000a81548173ffffffffffffffffffffffffffffffffffffffff021916908373ffffffffffffffffffffffffffffffffffffffff1602179055508173ffffffffffffffffffffffffffffffffffffffff168173ffffffffffffffffffffffffffffffffffffffff167f8be0079c531659141344cd1fd0a4f28419497f9722a3daafe3b4186f6b6457e060405160405180910390a35050565b600073ffffffffffffffffffffffffffffffffffffffff168273ffffffffffffffffffffffffffffffffffffffff16036200029a576040517f08c379a0000000000000000000000000000000000000000000000000000000008152600401620002919062000860565b60405180910390fd5b620002ae60008383620003a060201b60201c565b8060026000828254620002c29190620008b1565b92505081905550806000808473ffffffffffffffffffffffffffffffffffffffff1673ffffffffffffffffffffffffffffffffffffffff1681526020019081526020016000206000828254620003199190620008b1565b925050819055508173ffffffffffffffffffffffffffffffffffffffff16600073ffffffffffffffffffffffffffffffffffffffff167fddf252ad1be2c89b69c2b068fc378daa952ba7f163c4a11628f55a4df523b3ef836040516200038091906200091f565b60405180910390a36200039c60008383620003a560201b60201c565b5050565b505050565b505050565b828054620003b8906200096b565b90600052602060002090601f016020900481019282620003dc576000855562000428565b82601f10620003f757805160ff191683800117855562000428565b8280016001018555821562000428579182015b82811115620004275782518255916020019190600101906200040a565b5b5090506200043791906200043b565b5090565b5b80821115620004565760008160009055506001016200043c565b5090565b6000604051905090565b600080fd5b600080fd5b600080fd5b600080fd5b6000601f19601f8301169050919050565b7f4e487b7100000000000000000000000000000000000000000000000000000000600052604160045260246000fd5b620004c38262000478565b810181811067ffffffffffffffff82111715620004e557620004e462000489565b5b80604052505050565b6000620004fa6200045a565b9050620005088282620004b8565b919050565b600067ffffffffffffffff8211156200052b576200052a62000489565b5b620005368262000478565b9050602081019050919050565b60005b838110156200056357808201518184015260208101905062000546565b8381111562000573576000848401525b50505050565b6000620005906200058a846200050d565b620004ee565b905082815260208101848484011115620005af57620005ae62000473565b5b620005bc84828562000543565b509392505050565b600082601f830112620005dc57620005db6200046e565b5b8151620005ee84826020860162000579565b91505092915050565b600060ff82169050919050565b6200060f81620005f7565b81146200061b57600080fd5b50565b6000815190506200062f8162000604565b92915050565b6000819050919050565b6200064a8162000635565b81146200065657600080fd5b50565b6000815190506200066a816200063f565b92915050565b60008115159050919050565b620006878162000670565b81146200069357600080fd5b50565b600081519050620006a7816200067c565b92915050565b60006dffffffffffffffffffffffffffff82169050919050565b620006d281620006ad565b8114620006de57600080fd5b50565b600081519050620006f281620006c7565b92915050565b600080600080600080600080610100898b0312156200071c576200071b62000464565b5b600089015167ffffffffffffffff8111156200073d576200073c62000469565b5b6200074b8b828c01620005c4565b985050602089015167ffffffffffffffff8111156200076f576200076e62000469565b5b6200077d8b828c01620005c4565b9750506040620007908b828c016200061e565b9650506060620007a38b828c0162000659565b9550506080620007b68b828c0162000659565b94505060a0620007c98b828c0162000696565b93505060c0620007dc8b828c01620006e1565b92505060e0620007ef8b828c01620006e1565b9150509295985092959890939650565b600082825260208201905092915050565b7f45524332303a206d696e7420746f20746865207a65726f206164647265737300600082015250565b600062000848601f83620007ff565b9150620008558262000810565b602082019050919050565b600060208201905081810360008301526200087b8162000839565b9050919050565b7f4e487b7100000000000000000000000000000000000000000000000000000000600052601160045260246000fd5b6000620008be8262000635565b9150620008cb8362000635565b9250827fffffffffffffffffffffffffffffffffffffffffffffffffffffffffffffffff0382111562000903576200090262000882565b5b828201905092915050565b620009198162000635565b82525050565b60006020820190506200093660008301846200090e565b92915050565b7f4e487b7100000000000000000000000000000000000000000000000000000000600052602260045260246000fd5b600060028204905060018216806200098457607f821691505b6020821081036200099a57620009996200093c565b5b50919050565b61246080620009b06000396000f3fe60806040526004361061014b5760003560e01c806370a08231116100b6578063a457c2d71161006f578063a457c2d714610472578063a4821719146104af578063a9059cbb146104cd578063dd62ed3e1461050a578063e71804cd14610547578063f2fde38b146105705761014b565b806370a0823114610372578063715018a6146103af57806378e97925146103c65780637ff9b596146103f15780638da5cb5b1461041c57806395d89b41146104475761014b565b80633197cbb6116101085780633197cbb614610276578063378dc3dc146102a157806339509351146102cc57806340c10f191461030957806342966c681461033257806361d6d3851461035b5761014b565b806306fdde0314610150578063095ea7b31461017b57806318160ddd146101b857806323b872dd146101e3578063305c4c8014610220578063313ce5671461024b575b600080fd5b34801561015c57600080fd5b50610165610599565b60405161017291906117e8565b60405180910390f35b34801561018757600080fd5b506101a2600480360381019061019d91906118a3565b61062b565b6040516101af91906118fe565b60405180910390f35b3480156101c457600080fd5b506101cd61064e565b6040516101da9190611928565b60405180910390f35b3480156101ef57600080fd5b5061020a60048036038101906102059190611943565b610658565b60405161021791906118fe565b60405180910390f35b34801561022c57600080fd5b50610235610687565b60405161024291906118fe565b60405180910390f35b34801561025757600080fd5b5061026061069a565b60405161026d91906119b2565b60405180910390f35b34801561028257600080fd5b5061028b6106b1565b60405161029891906119f6565b60405180910390f35b3480156102ad57600080fd5b506102b66106d1565b6040516102c39190611928565b60405180910390f35b3480156102d857600080fd5b506102f360048036038101906102ee91906118a3565b6106d7565b60405161030091906118fe565b60405180910390f35b34801561031557600080fd5b50610330600480360381019061032b91906118a3565b61070e565b005b34801561033e57600080fd5b5061035960048036038101906103549190611a11565b610798565b005b34801561036757600080fd5b506103706107a5565b005b34801561037e57600080fd5b5061039960048036038101906103949190611a3e565b61083d565b6040516103a69190611928565b60405180910390f35b3480156103bb57600080fd5b506103c4610885565b005b3480156103d257600080fd5b506103db61090d565b6040516103e891906119f6565b60405180910390f35b3480156103fd57600080fd5b5061040661092d565b6040516104139190611928565b60405180910390f35b34801561042857600080fd5b50610431610933565b60405161043e9190611a7a565b60405180910390f35b34801561045357600080fd5b5061045c61095d565b60405161046991906117e8565b60405180910390f35b34801561047e57600080fd5b50610499600480360381019061049491906118a3565b6109ef565b6040516104a691906118fe565b60405180910390f35b6104b7610a66565b6040516104c491906118fe565b60405180910390f35b3480156104d957600080fd5b506104f460048036038101906104ef91906118a3565b610c34565b60405161050191906118fe565b60405180910390f35b34801561051657600080fd5b50610531600480360381019061052c9190611a95565b610c57565b60405161053e9190611928565b60405180910390f35b34801561055357600080fd5b5061056e60048036038101906105699190611b01565b610cde565b005b34801561057c57600080fd5b5061059760048036038101906105929190611a3e565b610d77565b005b6060600380546105a890611b5d565b80601f01602080910402602001604051908101604052809291908181526020018280546105d490611b5d565b80156106215780601f106105f657610100808354040283529160200191610621565b820191906000526020600020905b81548152906001019060200180831161060457829003601f168201915b5050505050905090565b600080610636610e6e565b9050610643818585610e76565b600191505092915050565b6000600254905090565b600080610663610e6e565b905061067085828561103f565b61067b8585856110cb565b60019150509392505050565b600860009054906101000a900460ff1681565b60006008601d9054906101000a900460ff16905090565b6008600f9054906101000a90046dffffffffffffffffffffffffffff1681565b60075481565b6000806106e2610e6e565b90506107038185856106f48589610c57565b6106fe9190611bbd565b610e76565b600191505092915050565b610716610e6e565b73ffffffffffffffffffffffffffffffffffffffff16610734610933565b73ffffffffffffffffffffffffffffffffffffffff161461078a576040517f08c379a000000000000000000000000000000000000000000000000000000000815260040161078190611c5f565b60405180910390fd5b610794828261134a565b5050565b6107a233826114a9565b50565b6107ad610e6e565b73ffffffffffffffffffffffffffffffffffffffff166107cb610933565b73ffffffffffffffffffffffffffffffffffffffff1614610821576040517f08c379a000000000000000000000000000000000000000000000000000000000815260040161081890611c5f565b60405180910390fd5b61083b3061082d610933565b6108363061083d565b6110cb565b565b60008060008373ffffffffffffffffffffffffffffffffffffffff1673ffffffffffffffffffffffffffffffffffffffff168152602001908152602001600020549050919050565b61088d610e6e565b73ffffffffffffffffffffffffffffffffffffffff166108ab610933565b73ffffffffffffffffffffffffffffffffffffffff1614610901576040517f08c379a00000000000000000000000000000000000000000000000000000000081526004016108f890611c5f565b60405180910390fd5b61090b600061167f565b565b600860019054906101000a90046dffffffffffffffffffffffffffff1681565b60065481565b6000600560009054906101000a900473ffffffffffffffffffffffffffffffffffffffff16905090565b60606004805461096c90611b5d565b80601f016020809104026020016040519081016040528092919081815260200182805461099890611b5d565b80156109e55780601f106109ba576101008083540402835291602001916109e5565b820191906000526020600020905b8154815290600101906020018083116109c857829003601f168201915b5050505050905090565b6000806109fa610e6e565b90506000610a088286610c57565b905083811015610a4d576040517f08c379a0000000000000000000000000000000000000000000000000000000008152600401610a4490611cf1565b60405180910390fd5b610a5a8286868403610e76565b60019250505092915050565b6000600860009054906101000a900460ff1615610adf5767016345785d8a00003373ffffffffffffffffffffffffffffffffffffffff163111610ade576040517f08c379a0000000000000000000000000000000000000000000000000000000008152600401610ad590611d5d565b60405180910390fd5b5b600860019054906101000a90046dffffffffffffffffffffffffffff166dffffffffffffffffffffffffffff1642118015610b4557506008600f9054906101000a90046dffffffffffffffffffffffffffff166dffffffffffffffffffffffffffff1642105b610b84576040517f08c379a0000000000000000000000000000000000000000000000000000000008152600401610b7b90611dc9565b60405180910390fd5b600060065434610b949190611e18565b9050610b9e610933565b73ffffffffffffffffffffffffffffffffffffffff166108fc349081150290604051600060405180830381858888f19350505050158015610be3573d6000803e3d6000fd5b50610bef3033836110cb565b7f047d414ddce29eba94711e9709b1446c3bb9339c2472cf6ff20610f80b18691233348342604051610c249493929190611e49565b60405180910390a1600191505090565b600080610c3f610e6e565b9050610c4c8185856110cb565b600191505092915050565b6000600160008473ffffffffffffffffffffffffffffffffffffffff1673ffffffffffffffffffffffffffffffffffffffff16815260200190815260200160002060008373ffffffffffffffffffffffffffffffffffffffff1673ffffffffffffffffffffffffffffffffffffffff16815260200190815260200160002054905092915050565b610ce6610e6e565b73ffffffffffffffffffffffffffffffffffffffff16610d04610933565b73ffffffffffffffffffffffffffffffffffffffff1614610d5a576040517f08c379a0000000000000000000000000000000000000000000000000000000008152600401610d5190611c5f565b60405180910390fd5b80600860006101000a81548160ff02191690831515021790555050565b610d7f610e6e565b73ffffffffffffffffffffffffffffffffffffffff16610d9d610933565b73ffffffffffffffffffffffffffffffffffffffff1614610df3576040517f08c379a0000000000000000000000000000000000000000000000000000000008152600401610dea90611c5f565b60405180910390fd5b600073ffffffffffffffffffffffffffffffffffffffff168173ffffffffffffffffffffffffffffffffffffffff1603610e62576040517f08c379a0000000000000000000000000000000000000000000000000000000008152600401610e5990611f00565b60405180910390fd5b610e6b8161167f565b50565b600033905090565b600073ffffffffffffffffffffffffffffffffffffffff168373ffffffffffffffffffffffffffffffffffffffff1603610ee5576040517f08c379a0000000000000000000000000000000000000000000000000000000008152600401610edc90611f92565b60405180910390fd5b600073ffffffffffffffffffffffffffffffffffffffff168273ffffffffffffffffffffffffffffffffffffffff1603610f54576040517f08c379a0000000000000000000000000000000000000000000000000000000008152600401610f4b90612024565b60405180910390fd5b80600160008573ffffffffffffffffffffffffffffffffffffffff1673ffffffffffffffffffffffffffffffffffffffff16815260200190815260200160002060008473ffffffffffffffffffffffffffffffffffffffff1673ffffffffffffffffffffffffffffffffffffffff168152602001908152602001600020819055508173ffffffffffffffffffffffffffffffffffffffff168373ffffffffffffffffffffffffffffffffffffffff167f8c5be1e5ebec7d5bd14f71427d1e84f3dd0314c0f7b2291e5b200ac8c7c3b925836040516110329190611928565b60405180910390a3505050565b600061104b8484610c57565b90507fffffffffffffffffffffffffffffffffffffffffffffffffffffffffffffffff81146110c557818110156110b7576040517f08c379a00000000000000000000000000000000000000000000000000000000081526004016110ae90612090565b60405180910390fd5b6110c48484848403610e76565b5b50505050565b600073ffffffffffffffffffffffffffffffffffffffff168373ffffffffffffffffffffffffffffffffffffffff160361113a576040517f08c379a000000000000000000000000000000000000000000000000000000000815260040161113190612122565b60405180910390fd5b600073ffffffffffffffffffffffffffffffffffffffff168273ffffffffffffffffffffffffffffffffffffffff16036111a9576040517f08c379a00000000000000000000000000000000000000000000000000000000081526004016111a0906121b4565b60405180910390fd5b6111b4838383611745565b60008060008573ffffffffffffffffffffffffffffffffffffffff1673ffffffffffffffffffffffffffffffffffffffff1681526020019081526020016000205490508181101561123a576040517f08c379a000000000000000000000000000000000000000000000000000000000815260040161123190612246565b60405180910390fd5b8181036000808673ffffffffffffffffffffffffffffffffffffffff1673ffffffffffffffffffffffffffffffffffffffff16815260200190815260200160002081905550816000808573ffffffffffffffffffffffffffffffffffffffff1673ffffffffffffffffffffffffffffffffffffffff16815260200190815260200160002060008282546112cd9190611bbd565b925050819055508273ffffffffffffffffffffffffffffffffffffffff168473ffffffffffffffffffffffffffffffffffffffff167fddf252ad1be2c89b69c2b068fc378daa952ba7f163c4a11628f55a4df523b3ef846040516113319190611928565b60405180910390a361134484848461174a565b50505050565b600073ffffffffffffffffffffffffffffffffffffffff168273ffffffffffffffffffffffffffffffffffffffff16036113b9576040517f08c379a00000000000000000000000000000000000000000000000000000000081526004016113b0906122b2565b60405180910390fd5b6113c560008383611745565b80600260008282546113d79190611bbd565b92505081905550806000808473ffffffffffffffffffffffffffffffffffffffff1673ffffffffffffffffffffffffffffffffffffffff168152602001908152602001600020600082825461142c9190611bbd565b925050819055508173ffffffffffffffffffffffffffffffffffffffff16600073ffffffffffffffffffffffffffffffffffffffff167fddf252ad1be2c89b69c2b068fc378daa952ba7f163c4a11628f55a4df523b3ef836040516114919190611928565b60405180910390a36114a56000838361174a565b5050565b600073ffffffffffffffffffffffffffffffffffffffff168273ffffffffffffffffffffffffffffffffffffffff1603611518576040517f08c379a000000000000000000000000000000000000000000000000000000000815260040161150f90612344565b60405180910390fd5b61152482600083611745565b60008060008473ffffffffffffffffffffffffffffffffffffffff1673ffffffffffffffffffffffffffffffffffffffff168152602001908152602001600020549050818110156115aa576040517f08c379a00000000000000000000000000000000000000000000000000000000081526004016115a1906123d6565b60405180910390fd5b8181036000808573ffffffffffffffffffffffffffffffffffffffff1673ffffffffffffffffffffffffffffffffffffffff16815260200190815260200160002081905550816002600082825461160191906123f6565b92505081905550600073ffffffffffffffffffffffffffffffffffffffff168373ffffffffffffffffffffffffffffffffffffffff167fddf252ad1be2c89b69c2b068fc378daa952ba7f163c4a11628f55a4df523b3ef846040516116669190611928565b60405180910390a361167a8360008461174a565b505050565b6000600560009054906101000a900473ffffffffffffffffffffffffffffffffffffffff16905081600560006101000a81548173ffffffffffffffffffffffffffffffffffffffff021916908373ffffffffffffffffffffffffffffffffffffffff1602179055508173ffffffffffffffffffffffffffffffffffffffff168173ffffffffffffffffffffffffffffffffffffffff167f8be0079c531659141344cd1fd0a4f28419497f9722a3daafe3b4186f6b6457e060405160405180910390a35050565b505050565b505050565b600081519050919050565b600082825260208201905092915050565b60005b8381101561178957808201518184015260208101905061176e565b83811115611798576000848401525b50505050565b6000601f19601f8301169050919050565b60006117ba8261174f565b6117c4818561175a565b93506117d481856020860161176b565b6117dd8161179e565b840191505092915050565b6000602082019050818103600083015261180281846117af565b905092915050565b600080fd5b600073ffffffffffffffffffffffffffffffffffffffff82169050919050565b600061183a8261180f565b9050919050565b61184a8161182f565b811461185557600080fd5b50565b60008135905061186781611841565b92915050565b6000819050919050565b6118808161186d565b811461188b57600080fd5b50565b60008135905061189d81611877565b92915050565b600080604083850312156118ba576118b961180a565b5b60006118c885828601611858565b92505060206118d98582860161188e565b9150509250929050565b60008115159050919050565b6118f8816118e3565b82525050565b600060208201905061191360008301846118ef565b92915050565b6119228161186d565b82525050565b600060208201905061193d6000830184611919565b92915050565b60008060006060848603121561195c5761195b61180a565b5b600061196a86828701611858565b935050602061197b86828701611858565b925050604061198c8682870161188e565b9150509250925092565b600060ff82169050919050565b6119ac81611996565b82525050565b60006020820190506119c760008301846119a3565b92915050565b60006dffffffffffffffffffffffffffff82169050919050565b6119f0816119cd565b82525050565b6000602082019050611a0b60008301846119e7565b92915050565b600060208284031215611a2757611a2661180a565b5b6000611a358482850161188e565b91505092915050565b600060208284031215611a5457611a5361180a565b5b6000611a6284828501611858565b91505092915050565b611a748161182f565b82525050565b6000602082019050611a8f6000830184611a6b565b92915050565b60008060408385031215611aac57611aab61180a565b5b6000611aba85828601611858565b9250506020611acb85828601611858565b9150509250929050565b611ade816118e3565b8114611ae957600080fd5b50565b600081359050611afb81611ad5565b92915050565b600060208284031215611b1757611b1661180a565b5b6000611b2584828501611aec565b91505092915050565b7f4e487b7100000000000000000000000000000000000000000000000000000000600052602260045260246000fd5b60006002820490506001821680611b7557607f821691505b602082108103611b8857611b87611b2e565b5b50919050565b7f4e487b7100000000000000000000000000000000000000000000000000000000600052601160045260246000fd5b6000611bc88261186d565b9150611bd38361186d565b9250827fffffffffffffffffffffffffffffffffffffffffffffffffffffffffffffffff03821115611c0857611c07611b8e565b5b828201905092915050565b7f4f776e61626c653a2063616c6c6572206973206e6f7420746865206f776e6572600082015250565b6000611c4960208361175a565b9150611c5482611c13565b602082019050919050565b60006020820190508181036000830152611c7881611c3c565b9050919050565b7f45524332303a2064656372656173656420616c6c6f77616e63652062656c6f7760008201527f207a65726f000000000000000000000000000000000000000000000000000000602082015250565b6000611cdb60258361175a565b9150611ce682611c7f565b604082019050919050565b60006020820190508181036000830152611d0a81611cce565b9050919050565b7f42616c616e6365732073686f756c64206d6f7265207468616e20302e31000000600082015250565b6000611d47601d8361175a565b9150611d5282611d11565b602082019050919050565b60006020820190508181036000830152611d7681611d3a565b9050919050565b7f45697468657220656e646564206f72206e6f7420737461727465642079657400600082015250565b6000611db3601f8361175a565b9150611dbe82611d7d565b602082019050919050565b60006020820190508181036000830152611de281611da6565b9050919050565b7f4e487b7100000000000000000000000000000000000000000000000000000000600052601260045260246000fd5b6000611e238261186d565b9150611e2e8361186d565b925082611e3e57611e3d611de9565b5b828204905092915050565b6000608082019050611e5e6000830187611a6b565b611e6b6020830186611919565b611e786040830185611919565b611e856060830184611919565b95945050505050565b7f4f776e61626c653a206e6577206f776e657220697320746865207a65726f206160008201527f6464726573730000000000000000000000000000000000000000000000000000602082015250565b6000611eea60268361175a565b9150611ef582611e8e565b604082019050919050565b60006020820190508181036000830152611f1981611edd565b9050919050565b7f45524332303a20617070726f76652066726f6d20746865207a65726f2061646460008201527f7265737300000000000000000000000000000000000000000000000000000000602082015250565b6000611f7c60248361175a565b9150611f8782611f20565b604082019050919050565b60006020820190508181036000830152611fab81611f6f565b9050919050565b7f45524332303a20617070726f766520746f20746865207a65726f20616464726560008201527f7373000000000000000000000000000000000000000000000000000000000000602082015250565b600061200e60228361175a565b915061201982611fb2565b604082019050919050565b6000602082019050818103600083015261203d81612001565b9050919050565b7f45524332303a20696e73756666696369656e7420616c6c6f77616e6365000000600082015250565b600061207a601d8361175a565b915061208582612044565b602082019050919050565b600060208201905081810360008301526120a98161206d565b9050919050565b7f45524332303a207472616e736665722066726f6d20746865207a65726f20616460008201527f6472657373000000000000000000000000000000000000000000000000000000602082015250565b600061210c60258361175a565b9150612117826120b0565b604082019050919050565b6000602082019050818103600083015261213b816120ff565b9050919050565b7f45524332303a207472616e7366657220746f20746865207a65726f206164647260008201527f6573730000000000000000000000000000000000000000000000000000000000602082015250565b600061219e60238361175a565b91506121a982612142565b604082019050919050565b600060208201905081810360008301526121cd81612191565b9050919050565b7f45524332303a207472616e7366657220616d6f756e742065786365656473206260008201527f616c616e63650000000000000000000000000000000000000000000000000000602082015250565b600061223060268361175a565b915061223b826121d4565b604082019050919050565b6000602082019050818103600083015261225f81612223565b9050919050565b7f45524332303a206d696e7420746f20746865207a65726f206164647265737300600082015250565b600061229c601f8361175a565b91506122a782612266565b602082019050919050565b600060208201905081810360008301526122cb8161228f565b9050919050565b7f45524332303a206275726e2066726f6d20746865207a65726f2061646472657360008201527f7300000000000000000000000000000000000000000000000000000000000000602082015250565b600061232e60218361175a565b9150612339826122d2565b604082019050919050565b6000602082019050818103600083015261235d81612321565b9050919050565b7f45524332303a206275726e20616d6f756e7420657863656564732062616c616e60008201527f6365000000000000000000000000000000000000000000000000000000000000602082015250565b60006123c060228361175a565b91506123cb82612364565b604082019050919050565b600060208201905081810360008301526123ef816123b3565b9050919050565b60006124018261186d565b915061240c8361186d565b92508282101561241f5761241e611b8e565b5b82820390509291505056fea2646970667358221220693d1bb200a188b5712539b2652f1bb1330a89ec2447a114850590233d03692a64736f6c634300080d0033",
  "immutableReferences": {},
  "source": "// SPDX-License-Identifier: MIT\r\npragma solidity 0.8.13;\r\n\r\n\r\nimport \"openzeppelin-solidity/contracts/token/ERC20/ERC20.sol\";\r\nimport \"openzeppelin-solidity/contracts/access/Ownable.sol\";\r\n\r\ncontract ERC20MintableBurnable is ERC20, Ownable {\r\n  uint256 public tokenPrice;\r\n  uint256 public initialSupply;\r\n  bool public antibot;\r\n  \r\n  uint112 public startTime;\r\n  uint112 public endTime;\r\n  uint8 private _decimals;\r\n\r\n  event BuyToken(address to, uint256 ethAmount, uint256 tokenAmount, uint256 timestamp);\r\n\r\n  constructor(string memory _name, string memory _symbol, uint8 decimals_, uint256 _initialSupply, uint256 _tokenPrice, bool _antibot, uint112 _startTime, uint112 _endTime) ERC20(_name, _symbol) {\r\n    _decimals = decimals_;\r\n    tokenPrice = _tokenPrice;\r\n    initialSupply = _initialSupply;\r\n    antibot = _antibot;\r\n    startTime = _startTime;\r\n    endTime = _endTime;\r\n    _mint(address(this), _initialSupply);\r\n  }\r\n\r\n  function decimals() public view virtual override returns (uint8) {\r\n    return _decimals;\r\n  }\r\n\r\n  function burn(uint256 _amount) public {\r\n    _burn(msg.sender, _amount);\r\n  }\r\n\r\n  function mint(address _address, uint256 _amount) public onlyOwner {\r\n    _mint(_address, _amount);\r\n  }\r\n\r\n  function buyToken() public payable returns(bool) {\r\n    if(antibot){\r\n      require(address(msg.sender).balance > 0.1 ether, \"Balances should more than 0.1\");\r\n    }\r\n    require(block.timestamp> startTime && block.timestamp < endTime, \"Either ended or not started yet\");\r\n    uint256 amount = msg.value/tokenPrice;\r\n    payable(owner()).transfer(msg.value);\r\n    _transfer(address(this), msg.sender, amount);\r\n    emit BuyToken(msg.sender, msg.value, amount, block.timestamp);\r\n    return true;\r\n  }\r\n\r\n  function withdrawUnsold() public onlyOwner {\r\n    _transfer(address(this), owner(), balanceOf(address(this)));\r\n  }\r\n\r\n  function setAntibot(bool _newState) external onlyOwner {\r\n    antibot = _newState;\r\n  }\r\n}",
  "sourcePath": "C:\\Users\\JSON-BSON\\Documents\\blockboyBenji\\Launchpad\\main-template\\contracts\\contracts\\ERC20MintableBurnable.sol",
  "compiler": {
    "name": "solc",
    "version": "0.8.13+commit.abaa5c0e.Emscripten.clang"
  },
  "schemaVersion": "3.4.7",
  "updatedAt": "2022-11-15T08:12:12.011Z",
  "devdoc": {
    "kind": "dev",
    "methods": {
      "allowance(address,address)": {
        "details": "See {IERC20-allowance}."
      },
      "approve(address,uint256)": {
        "details": "See {IERC20-approve}. NOTE: If `amount` is the maximum `uint256`, the allowance is not updated on `transferFrom`. This is semantically equivalent to an infinite approval. Requirements: - `spender` cannot be the zero address."
      },
      "balanceOf(address)": {
        "details": "See {IERC20-balanceOf}."
      },
      "decimals()": {
        "details": "Returns the number of decimals used to get its user representation. For example, if `decimals` equals `2`, a balance of `505` tokens should be displayed to a user as `5.05` (`505 / 10 ** 2`). Tokens usually opt for a value of 18, imitating the relationship between Ether and Wei. This is the value {ERC20} uses, unless this function is overridden; NOTE: This information is only used for _display_ purposes: it in no way affects any of the arithmetic of the contract, including {IERC20-balanceOf} and {IERC20-transfer}."
      },
      "decreaseAllowance(address,uint256)": {
        "details": "Atomically decreases the allowance granted to `spender` by the caller. This is an alternative to {approve} that can be used as a mitigation for problems described in {IERC20-approve}. Emits an {Approval} event indicating the updated allowance. Requirements: - `spender` cannot be the zero address. - `spender` must have allowance for the caller of at least `subtractedValue`."
      },
      "increaseAllowance(address,uint256)": {
        "details": "Atomically increases the allowance granted to `spender` by the caller. This is an alternative to {approve} that can be used as a mitigation for problems described in {IERC20-approve}. Emits an {Approval} event indicating the updated allowance. Requirements: - `spender` cannot be the zero address."
      },
      "name()": {
        "details": "Returns the name of the token."
      },
      "owner()": {
        "details": "Returns the address of the current owner."
      },
      "renounceOwnership()": {
        "details": "Leaves the contract without owner. It will not be possible to call `onlyOwner` functions anymore. Can only be called by the current owner. NOTE: Renouncing ownership will leave the contract without an owner, thereby removing any functionality that is only available to the owner."
      },
      "symbol()": {
        "details": "Returns the symbol of the token, usually a shorter version of the name."
      },
      "totalSupply()": {
        "details": "See {IERC20-totalSupply}."
      },
      "transfer(address,uint256)": {
        "details": "See {IERC20-transfer}. Requirements: - `to` cannot be the zero address. - the caller must have a balance of at least `amount`."
      },
      "transferFrom(address,address,uint256)": {
        "details": "See {IERC20-transferFrom}. Emits an {Approval} event indicating the updated allowance. This is not required by the EIP. See the note at the beginning of {ERC20}. NOTE: Does not update the allowance if the current allowance is the maximum `uint256`. Requirements: - `from` and `to` cannot be the zero address. - `from` must have a balance of at least `amount`. - the caller must have allowance for ``from``'s tokens of at least `amount`."
      },
      "transferOwnership(address)": {
        "details": "Transfers ownership of the contract to a new account (`newOwner`). Can only be called by the current owner."
      }
    },
    "version": 1
  },
  "userdoc": {
    "kind": "user",
    "methods": {},
    "version": 1
  }
}