{
  "contractName": "ERC20FixedSupply",
  "abi": [
    {
      "inputs": [
        {
          "internalType": "string",
          "name": "_name",
          "type": "string"
        },
        {
          "internalType": "string",
          "name": "_symbol",
          "type": "string"
        },
        {
          "internalType": "uint8",
          "name": "decimals_",
          "type": "uint8"
        },
        {
          "internalType": "uint256",
          "name": "_initialSupply",
          "type": "uint256"
        },
        {
          "internalType": "uint256",
          "name": "_tokenPrice",
          "type": "uint256"
        },
        {
          "internalType": "bool",
          "name": "_antibot",
          "type": "bool"
        },
        {
          "internalType": "uint112",
          "name": "_startTime",
          "type": "uint112"
        },
        {
          "internalType": "uint112",
          "name": "_endTime",
          "type": "uint112"
        }
      ],
      "stateMutability": "nonpayable",
      "type": "constructor"
    },
    {
      "anonymous": false,
      "inputs": [
        {
          "indexed": true,
          "internalType": "address",
          "name": "owner",
          "type": "address"
        },
        {
          "indexed": true,
          "internalType": "address",
          "name": "spender",
          "type": "address"
        },
        {
          "indexed": false,
          "internalType": "uint256",
          "name": "value",
          "type": "uint256"
        }
      ],
      "name": "Approval",
      "type": "event"
    },
    {
      "anonymous": false,
      "inputs": [
        {
          "indexed": false,
          "internalType": "address",
          "name": "to",
          "type": "address"
        },
        {
          "indexed": false,
          "internalType": "uint256",
          "name": "ethAmount",
          "type": "uint256"
        },
        {
          "indexed": false,
          "internalType": "uint256",
          "name": "tokenAmount",
          "type": "uint256"
        },
        {
          "indexed": false,
          "internalType": "uint256",
          "name": "timestamp",
          "type": "uint256"
        }
      ],
      "name": "BuyToken",
      "type": "event"
    },
    {
      "anonymous": false,
      "inputs": [
        {
          "indexed": true,
          "internalType": "address",
          "name": "previousOwner",
          "type": "address"
        },
        {
          "indexed": true,
          "internalType": "address",
          "name": "newOwner",
          "type": "address"
        }
      ],
      "name": "OwnershipTransferred",
      "type": "event"
    },
    {
      "anonymous": false,
      "inputs": [
        {
          "indexed": true,
          "internalType": "address",
          "name": "from",
          "type": "address"
        },
        {
          "indexed": true,
          "internalType": "address",
          "name": "to",
          "type": "address"
        },
        {
          "indexed": false,
          "internalType": "uint256",
          "name": "value",
          "type": "uint256"
        }
      ],
      "name": "Transfer",
      "type": "event"
    },
    {
      "inputs": [
        {
          "internalType": "address",
          "name": "owner",
          "type": "address"
        },
        {
          "internalType": "address",
          "name": "spender",
          "type": "address"
        }
      ],
      "name": "allowance",
      "outputs": [
        {
          "internalType": "uint256",
          "name": "",
          "type": "uint256"
        }
      ],
      "stateMutability": "view",
      "type": "function"
    },
    {
      "inputs": [],
      "name": "antibot",
      "outputs": [
        {
          "internalType": "bool",
          "name": "",
          "type": "bool"
        }
      ],
      "stateMutability": "view",
      "type": "function"
    },
    {
      "inputs": [
        {
          "internalType": "address",
          "name": "spender",
          "type": "address"
        },
        {
          "internalType": "uint256",
          "name": "amount",
          "type": "uint256"
        }
      ],
      "name": "approve",
      "outputs": [
        {
          "internalType": "bool",
          "name": "",
          "type": "bool"
        }
      ],
      "stateMutability": "nonpayable",
      "type": "function"
    },
    {
      "inputs": [
        {
          "internalType": "address",
          "name": "account",
          "type": "address"
        }
      ],
      "name": "balanceOf",
      "outputs": [
        {
          "internalType": "uint256",
          "name": "",
          "type": "uint256"
        }
      ],
      "stateMutability": "view",
      "type": "function"
    },
    {
      "inputs": [
        {
          "internalType": "address",
          "name": "spender",
          "type": "address"
        },
        {
          "internalType": "uint256",
          "name": "subtractedValue",
          "type": "uint256"
        }
      ],
      "name": "decreaseAllowance",
      "outputs": [
        {
          "internalType": "bool",
          "name": "",
          "type": "bool"
        }
      ],
      "stateMutability": "nonpayable",
      "type": "function"
    },
    {
      "inputs": [],
      "name": "endTime",
      "outputs": [
        {
          "internalType": "uint112",
          "name": "",
          "type": "uint112"
        }
      ],
      "stateMutability": "view",
      "type": "function"
    },
    {
      "inputs": [
        {
          "internalType": "address",
          "name": "spender",
          "type": "address"
        },
        {
          "internalType": "uint256",
          "name": "addedValue",
          "type": "uint256"
        }
      ],
      "name": "increaseAllowance",
      "outputs": [
        {
          "internalType": "bool",
          "name": "",
          "type": "bool"
        }
      ],
      "stateMutability": "nonpayable",
      "type": "function"
    },
    {
      "inputs": [],
      "name": "initialSupply",
      "outputs": [
        {
          "internalType": "uint256",
          "name": "",
          "type": "uint256"
        }
      ],
      "stateMutability": "view",
      "type": "function"
    },
    {
      "inputs": [],
      "name": "name",
      "outputs": [
        {
          "internalType": "string",
          "name": "",
          "type": "string"
        }
      ],
      "stateMutability": "view",
      "type": "function"
    },
    {
      "inputs": [],
      "name": "owner",
      "outputs": [
        {
          "internalType": "address",
          "name": "",
          "type": "address"
        }
      ],
      "stateMutability": "view",
      "type": "function"
    },
    {
      "inputs": [],
      "name": "renounceOwnership",
      "outputs": [],
      "stateMutability": "nonpayable",
      "type": "function"
    },
    {
      "inputs": [],
      "name": "startTime",
      "outputs": [
        {
          "internalType": "uint112",
          "name": "",
          "type": "uint112"
        }
      ],
      "stateMutability": "view",
      "type": "function"
    },
    {
      "inputs": [],
      "name": "symbol",
      "outputs": [
        {
          "internalType": "string",
          "name": "",
          "type": "string"
        }
      ],
      "stateMutability": "view",
      "type": "function"
    },
    {
      "inputs": [],
      "name": "tokenPrice",
      "outputs": [
        {
          "internalType": "uint256",
          "name": "",
          "type": "uint256"
        }
      ],
      "stateMutability": "view",
      "type": "function"
    },
    {
      "inputs": [],
      "name": "totalSupply",
      "outputs": [
        {
          "internalType": "uint256",
          "name": "",
          "type": "uint256"
        }
      ],
      "stateMutability": "view",
      "type": "function"
    },
    {
      "inputs": [
        {
          "internalType": "address",
          "name": "to",
          "type": "address"
        },
        {
          "internalType": "uint256",
          "name": "amount",
          "type": "uint256"
        }
      ],
      "name": "transfer",
      "outputs": [
        {
          "internalType": "bool",
          "name": "",
          "type": "bool"
        }
      ],
      "stateMutability": "nonpayable",
      "type": "function"
    },
    {
      "inputs": [
        {
          "internalType": "address",
          "name": "from",
          "type": "address"
        },
        {
          "internalType": "address",
          "name": "to",
          "type": "address"
        },
        {
          "internalType": "uint256",
          "name": "amount",
          "type": "uint256"
        }
      ],
      "name": "transferFrom",
      "outputs": [
        {
          "internalType": "bool",
          "name": "",
          "type": "bool"
        }
      ],
      "stateMutability": "nonpayable",
      "type": "function"
    },
    {
      "inputs": [
        {
          "internalType": "address",
          "name": "newOwner",
          "type": "address"
        }
      ],
      "name": "transferOwnership",
      "outputs": [],
      "stateMutability": "nonpayable",
      "type": "function"
    },
    {
      "inputs": [],
      "name": "decimals",
      "outputs": [
        {
          "internalType": "uint8",
          "name": "",
          "type": "uint8"
        }
      ],
      "stateMutability": "view",
      "type": "function"
    },
    {
      "inputs": [],
      "name": "buyToken",
      "outputs": [
        {
          "internalType": "bool",
          "name": "",
          "type": "bool"
        }
      ],
      "stateMutability": "payable",
      "type": "function"
    },
    {
      "inputs": [],
      "name": "withdrawUnsold",
      "outputs": [],
      "stateMutability": "nonpayable",
      "type": "function"
    },
    {
      "inputs": [
        {
          "internalType": "bool",
          "name": "_newState",
          "type": "bool"
        }
      ],
      "name": "setAntibot",
      "outputs": [],
      "stateMutability": "nonpayable",
      "type": "function"
    }
  ],
  "bytecode": "0x60806040523480156200001157600080fd5b50604051620027eb380380620027eb8339818101604052810190620000379190620006f8565b8787816003908051906020019062000051929190620003aa565b5080600490805190602001906200006a929190620003aa565b5050506200008d620000816200015a60201b60201c565b6200016260201b60201c565b856008601d6101000a81548160ff021916908360ff160217905550836006819055508460078190555082600860006101000a81548160ff02191690831515021790555081600860016101000a8154816dffffffffffffffffffffffffffff02191690836dffffffffffffffffffffffffffff160217905550806008600f6101000a8154816dffffffffffffffffffffffffffff02191690836dffffffffffffffffffffffffffff1602179055506200014c30866200022860201b60201c565b5050505050505050620009a0565b600033905090565b6000600560009054906101000a900473ffffffffffffffffffffffffffffffffffffffff16905081600560006101000a81548173ffffffffffffffffffffffffffffffffffffffff021916908373ffffffffffffffffffffffffffffffffffffffff1602179055508173ffffffffffffffffffffffffffffffffffffffff168173ffffffffffffffffffffffffffffffffffffffff167f8be0079c531659141344cd1fd0a4f28419497f9722a3daafe3b4186f6b6457e060405160405180910390a35050565b600073ffffffffffffffffffffffffffffffffffffffff168273ffffffffffffffffffffffffffffffffffffffff16036200029a576040517f08c379a0000000000000000000000000000000000000000000000000000000008152600401620002919062000860565b60405180910390fd5b620002ae60008383620003a060201b60201c565b8060026000828254620002c29190620008b1565b92505081905550806000808473ffffffffffffffffffffffffffffffffffffffff1673ffffffffffffffffffffffffffffffffffffffff1681526020019081526020016000206000828254620003199190620008b1565b925050819055508173ffffffffffffffffffffffffffffffffffffffff16600073ffffffffffffffffffffffffffffffffffffffff167fddf252ad1be2c89b69c2b068fc378daa952ba7f163c4a11628f55a4df523b3ef836040516200038091906200091f565b60405180910390a36200039c60008383620003a560201b60201c565b5050565b505050565b505050565b828054620003b8906200096b565b90600052602060002090601f016020900481019282620003dc576000855562000428565b82601f10620003f757805160ff191683800117855562000428565b8280016001018555821562000428579182015b82811115620004275782518255916020019190600101906200040a565b5b5090506200043791906200043b565b5090565b5b80821115620004565760008160009055506001016200043c565b5090565b6000604051905090565b600080fd5b600080fd5b600080fd5b600080fd5b6000601f19601f8301169050919050565b7f4e487b7100000000000000000000000000000000000000000000000000000000600052604160045260246000fd5b620004c38262000478565b810181811067ffffffffffffffff82111715620004e557620004e462000489565b5b80604052505050565b6000620004fa6200045a565b9050620005088282620004b8565b919050565b600067ffffffffffffffff8211156200052b576200052a62000489565b5b620005368262000478565b9050602081019050919050565b60005b838110156200056357808201518184015260208101905062000546565b8381111562000573576000848401525b50505050565b6000620005906200058a846200050d565b620004ee565b905082815260208101848484011115620005af57620005ae62000473565b5b620005bc84828562000543565b509392505050565b600082601f830112620005dc57620005db6200046e565b5b8151620005ee84826020860162000579565b91505092915050565b600060ff82169050919050565b6200060f81620005f7565b81146200061b57600080fd5b50565b6000815190506200062f8162000604565b92915050565b6000819050919050565b6200064a8162000635565b81146200065657600080fd5b50565b6000815190506200066a816200063f565b92915050565b60008115159050919050565b620006878162000670565b81146200069357600080fd5b50565b600081519050620006a7816200067c565b92915050565b60006dffffffffffffffffffffffffffff82169050919050565b620006d281620006ad565b8114620006de57600080fd5b50565b600081519050620006f281620006c7565b92915050565b600080600080600080600080610100898b0312156200071c576200071b62000464565b5b600089015167ffffffffffffffff8111156200073d576200073c62000469565b5b6200074b8b828c01620005c4565b985050602089015167ffffffffffffffff8111156200076f576200076e62000469565b5b6200077d8b828c01620005c4565b9750506040620007908b828c016200061e565b9650506060620007a38b828c0162000659565b9550506080620007b68b828c0162000659565b94505060a0620007c98b828c0162000696565b93505060c0620007dc8b828c01620006e1565b92505060e0620007ef8b828c01620006e1565b9150509295985092959890939650565b600082825260208201905092915050565b7f45524332303a206d696e7420746f20746865207a65726f206164647265737300600082015250565b600062000848601f83620007ff565b9150620008558262000810565b602082019050919050565b600060208201905081810360008301526200087b8162000839565b9050919050565b7f4e487b7100000000000000000000000000000000000000000000000000000000600052601160045260246000fd5b6000620008be8262000635565b9150620008cb8362000635565b9250827fffffffffffffffffffffffffffffffffffffffffffffffffffffffffffffffff0382111562000903576200090262000882565b5b828201905092915050565b620009198162000635565b82525050565b60006020820190506200093660008301846200090e565b92915050565b7f4e487b7100000000000000000000000000000000000000000000000000000000600052602260045260246000fd5b600060028204905060018216806200098457607f821691505b6020821081036200099a57620009996200093c565b5b50919050565b611e3b80620009b06000396000f3fe6080604052600436106101355760003560e01c8063715018a6116100ab578063a457c2d71161006f578063a457c2d71461040a578063a482171914610447578063a9059cbb14610465578063dd62ed3e146104a2578063e71804cd146104df578063f2fde38b1461050857610135565b8063715018a61461034757806378e979251461035e5780637ff9b596146103895780638da5cb5b146103b457806395d89b41146103df57610135565b8063313ce567116100fd578063313ce567146102355780633197cbb614610260578063378dc3dc1461028b57806339509351146102b657806361d6d385146102f357806370a082311461030a57610135565b806306fdde031461013a578063095ea7b31461016557806318160ddd146101a257806323b872dd146101cd578063305c4c801461020a575b600080fd5b34801561014657600080fd5b5061014f610531565b60405161015c91906113b4565b60405180910390f35b34801561017157600080fd5b5061018c6004803603810190610187919061146f565b6105c3565b60405161019991906114ca565b60405180910390f35b3480156101ae57600080fd5b506101b76105e6565b6040516101c491906114f4565b60405180910390f35b3480156101d957600080fd5b506101f460048036038101906101ef919061150f565b6105f0565b60405161020191906114ca565b60405180910390f35b34801561021657600080fd5b5061021f61061f565b60405161022c91906114ca565b60405180910390f35b34801561024157600080fd5b5061024a610632565b604051610257919061157e565b60405180910390f35b34801561026c57600080fd5b50610275610649565b60405161028291906115c2565b60405180910390f35b34801561029757600080fd5b506102a0610669565b6040516102ad91906114f4565b60405180910390f35b3480156102c257600080fd5b506102dd60048036038101906102d8919061146f565b61066f565b6040516102ea91906114ca565b60405180910390f35b3480156102ff57600080fd5b506103086106a6565b005b34801561031657600080fd5b50610331600480360381019061032c91906115dd565b61073e565b60405161033e91906114f4565b60405180910390f35b34801561035357600080fd5b5061035c610786565b005b34801561036a57600080fd5b5061037361080e565b60405161038091906115c2565b60405180910390f35b34801561039557600080fd5b5061039e61082e565b6040516103ab91906114f4565b60405180910390f35b3480156103c057600080fd5b506103c9610834565b6040516103d69190611619565b60405180910390f35b3480156103eb57600080fd5b506103f461085e565b60405161040191906113b4565b60405180910390f35b34801561041657600080fd5b50610431600480360381019061042c919061146f565b6108f0565b60405161043e91906114ca565b60405180910390f35b61044f610967565b60405161045c91906114ca565b60405180910390f35b34801561047157600080fd5b5061048c6004803603810190610487919061146f565b610b35565b60405161049991906114ca565b60405180910390f35b3480156104ae57600080fd5b506104c960048036038101906104c49190611634565b610b58565b6040516104d691906114f4565b60405180910390f35b3480156104eb57600080fd5b50610506600480360381019061050191906116a0565b610bdf565b005b34801561051457600080fd5b5061052f600480360381019061052a91906115dd565b610c78565b005b606060038054610540906116fc565b80601f016020809104026020016040519081016040528092919081815260200182805461056c906116fc565b80156105b95780601f1061058e576101008083540402835291602001916105b9565b820191906000526020600020905b81548152906001019060200180831161059c57829003601f168201915b5050505050905090565b6000806105ce610d6f565b90506105db818585610d77565b600191505092915050565b6000600254905090565b6000806105fb610d6f565b9050610608858285610f40565b610613858585610fcc565b60019150509392505050565b600860009054906101000a900460ff1681565b60006008601d9054906101000a900460ff16905090565b6008600f9054906101000a90046dffffffffffffffffffffffffffff1681565b60075481565b60008061067a610d6f565b905061069b81858561068c8589610b58565b610696919061175c565b610d77565b600191505092915050565b6106ae610d6f565b73ffffffffffffffffffffffffffffffffffffffff166106cc610834565b73ffffffffffffffffffffffffffffffffffffffff1614610722576040517f08c379a0000000000000000000000000000000000000000000000000000000008152600401610719906117fe565b60405180910390fd5b61073c3061072e610834565b6107373061073e565b610fcc565b565b60008060008373ffffffffffffffffffffffffffffffffffffffff1673ffffffffffffffffffffffffffffffffffffffff168152602001908152602001600020549050919050565b61078e610d6f565b73ffffffffffffffffffffffffffffffffffffffff166107ac610834565b73ffffffffffffffffffffffffffffffffffffffff1614610802576040517f08c379a00000000000000000000000000000000000000000000000000000000081526004016107f9906117fe565b60405180910390fd5b61080c600061124b565b565b600860019054906101000a90046dffffffffffffffffffffffffffff1681565b60065481565b6000600560009054906101000a900473ffffffffffffffffffffffffffffffffffffffff16905090565b60606004805461086d906116fc565b80601f0160208091040260200160405190810160405280929190818152602001828054610899906116fc565b80156108e65780601f106108bb576101008083540402835291602001916108e6565b820191906000526020600020905b8154815290600101906020018083116108c957829003601f168201915b5050505050905090565b6000806108fb610d6f565b905060006109098286610b58565b90508381101561094e576040517f08c379a000000000000000000000000000000000000000000000000000000000815260040161094590611890565b60405180910390fd5b61095b8286868403610d77565b60019250505092915050565b6000600860009054906101000a900460ff16156109e05767016345785d8a00003373ffffffffffffffffffffffffffffffffffffffff1631116109df576040517f08c379a00000000000000000000000000000000000000000000000000000000081526004016109d6906118fc565b60405180910390fd5b5b600860019054906101000a90046dffffffffffffffffffffffffffff166dffffffffffffffffffffffffffff1642118015610a4657506008600f9054906101000a90046dffffffffffffffffffffffffffff166dffffffffffffffffffffffffffff1642105b610a85576040517f08c379a0000000000000000000000000000000000000000000000000000000008152600401610a7c90611968565b60405180910390fd5b600060065434610a9591906119b7565b9050610a9f610834565b73ffffffffffffffffffffffffffffffffffffffff166108fc349081150290604051600060405180830381858888f19350505050158015610ae4573d6000803e3d6000fd5b50610af0303383610fcc565b7f047d414ddce29eba94711e9709b1446c3bb9339c2472cf6ff20610f80b18691233348342604051610b2594939291906119e8565b60405180910390a1600191505090565b600080610b40610d6f565b9050610b4d818585610fcc565b600191505092915050565b6000600160008473ffffffffffffffffffffffffffffffffffffffff1673ffffffffffffffffffffffffffffffffffffffff16815260200190815260200160002060008373ffffffffffffffffffffffffffffffffffffffff1673ffffffffffffffffffffffffffffffffffffffff16815260200190815260200160002054905092915050565b610be7610d6f565b73ffffffffffffffffffffffffffffffffffffffff16610c05610834565b73ffffffffffffffffffffffffffffffffffffffff1614610c5b576040517f08c379a0000000000000000000000000000000000000000000000000000000008152600401610c52906117fe565b60405180910390fd5b80600860006101000a81548160ff02191690831515021790555050565b610c80610d6f565b73ffffffffffffffffffffffffffffffffffffffff16610c9e610834565b73ffffffffffffffffffffffffffffffffffffffff1614610cf4576040517f08c379a0000000000000000000000000000000000000000000000000000000008152600401610ceb906117fe565b60405180910390fd5b600073ffffffffffffffffffffffffffffffffffffffff168173ffffffffffffffffffffffffffffffffffffffff1603610d63576040517f08c379a0000000000000000000000000000000000000000000000000000000008152600401610d5a90611a9f565b60405180910390fd5b610d6c8161124b565b50565b600033905090565b600073ffffffffffffffffffffffffffffffffffffffff168373ffffffffffffffffffffffffffffffffffffffff1603610de6576040517f08c379a0000000000000000000000000000000000000000000000000000000008152600401610ddd90611b31565b60405180910390fd5b600073ffffffffffffffffffffffffffffffffffffffff168273ffffffffffffffffffffffffffffffffffffffff1603610e55576040517f08c379a0000000000000000000000000000000000000000000000000000000008152600401610e4c90611bc3565b60405180910390fd5b80600160008573ffffffffffffffffffffffffffffffffffffffff1673ffffffffffffffffffffffffffffffffffffffff16815260200190815260200160002060008473ffffffffffffffffffffffffffffffffffffffff1673ffffffffffffffffffffffffffffffffffffffff168152602001908152602001600020819055508173ffffffffffffffffffffffffffffffffffffffff168373ffffffffffffffffffffffffffffffffffffffff167f8c5be1e5ebec7d5bd14f71427d1e84f3dd0314c0f7b2291e5b200ac8c7c3b92583604051610f3391906114f4565b60405180910390a3505050565b6000610f4c8484610b58565b90507fffffffffffffffffffffffffffffffffffffffffffffffffffffffffffffffff8114610fc65781811015610fb8576040517f08c379a0000000000000000000000000000000000000000000000000000000008152600401610faf90611c2f565b60405180910390fd5b610fc58484848403610d77565b5b50505050565b600073ffffffffffffffffffffffffffffffffffffffff168373ffffffffffffffffffffffffffffffffffffffff160361103b576040517f08c379a000000000000000000000000000000000000000000000000000000000815260040161103290611cc1565b60405180910390fd5b600073ffffffffffffffffffffffffffffffffffffffff168273ffffffffffffffffffffffffffffffffffffffff16036110aa576040517f08c379a00000000000000000000000000000000000000000000000000000000081526004016110a190611d53565b60405180910390fd5b6110b5838383611311565b60008060008573ffffffffffffffffffffffffffffffffffffffff1673ffffffffffffffffffffffffffffffffffffffff1681526020019081526020016000205490508181101561113b576040517f08c379a000000000000000000000000000000000000000000000000000000000815260040161113290611de5565b60405180910390fd5b8181036000808673ffffffffffffffffffffffffffffffffffffffff1673ffffffffffffffffffffffffffffffffffffffff16815260200190815260200160002081905550816000808573ffffffffffffffffffffffffffffffffffffffff1673ffffffffffffffffffffffffffffffffffffffff16815260200190815260200160002060008282546111ce919061175c565b925050819055508273ffffffffffffffffffffffffffffffffffffffff168473ffffffffffffffffffffffffffffffffffffffff167fddf252ad1be2c89b69c2b068fc378daa952ba7f163c4a11628f55a4df523b3ef8460405161123291906114f4565b60405180910390a3611245848484611316565b50505050565b6000600560009054906101000a900473ffffffffffffffffffffffffffffffffffffffff16905081600560006101000a81548173ffffffffffffffffffffffffffffffffffffffff021916908373ffffffffffffffffffffffffffffffffffffffff1602179055508173ffffffffffffffffffffffffffffffffffffffff168173ffffffffffffffffffffffffffffffffffffffff167f8be0079c531659141344cd1fd0a4f28419497f9722a3daafe3b4186f6b6457e060405160405180910390a35050565b505050565b505050565b600081519050919050565b600082825260208201905092915050565b60005b8381101561135557808201518184015260208101905061133a565b83811115611364576000848401525b50505050565b6000601f19601f8301169050919050565b60006113868261131b565b6113908185611326565b93506113a0818560208601611337565b6113a98161136a565b840191505092915050565b600060208201905081810360008301526113ce818461137b565b905092915050565b600080fd5b600073ffffffffffffffffffffffffffffffffffffffff82169050919050565b6000611406826113db565b9050919050565b611416816113fb565b811461142157600080fd5b50565b6000813590506114338161140d565b92915050565b6000819050919050565b61144c81611439565b811461145757600080fd5b50565b60008135905061146981611443565b92915050565b60008060408385031215611486576114856113d6565b5b600061149485828601611424565b92505060206114a58582860161145a565b9150509250929050565b60008115159050919050565b6114c4816114af565b82525050565b60006020820190506114df60008301846114bb565b92915050565b6114ee81611439565b82525050565b600060208201905061150960008301846114e5565b92915050565b600080600060608486031215611528576115276113d6565b5b600061153686828701611424565b935050602061154786828701611424565b92505060406115588682870161145a565b9150509250925092565b600060ff82169050919050565b61157881611562565b82525050565b6000602082019050611593600083018461156f565b92915050565b60006dffffffffffffffffffffffffffff82169050919050565b6115bc81611599565b82525050565b60006020820190506115d760008301846115b3565b92915050565b6000602082840312156115f3576115f26113d6565b5b600061160184828501611424565b91505092915050565b611613816113fb565b82525050565b600060208201905061162e600083018461160a565b92915050565b6000806040838503121561164b5761164a6113d6565b5b600061165985828601611424565b925050602061166a85828601611424565b9150509250929050565b61167d816114af565b811461168857600080fd5b50565b60008135905061169a81611674565b92915050565b6000602082840312156116b6576116b56113d6565b5b60006116c48482850161168b565b91505092915050565b7f4e487b7100000000000000000000000000000000000000000000000000000000600052602260045260246000fd5b6000600282049050600182168061171457607f821691505b602082108103611727576117266116cd565b5b50919050565b7f4e487b7100000000000000000000000000000000000000000000000000000000600052601160045260246000fd5b600061176782611439565b915061177283611439565b9250827fffffffffffffffffffffffffffffffffffffffffffffffffffffffffffffffff038211156117a7576117a661172d565b5b828201905092915050565b7f4f776e61626c653a2063616c6c6572206973206e6f7420746865206f776e6572600082015250565b60006117e8602083611326565b91506117f3826117b2565b602082019050919050565b60006020820190508181036000830152611817816117db565b9050919050565b7f45524332303a2064656372656173656420616c6c6f77616e63652062656c6f7760008201527f207a65726f000000000000000000000000000000000000000000000000000000602082015250565b600061187a602583611326565b91506118858261181e565b604082019050919050565b600060208201905081810360008301526118a98161186d565b9050919050565b7f42616c616e6365732073686f756c64206d6f7265207468616e20302e31000000600082015250565b60006118e6601d83611326565b91506118f1826118b0565b602082019050919050565b60006020820190508181036000830152611915816118d9565b9050919050565b7f45697468657220656e646564206f72206e6f7420737461727465642079657400600082015250565b6000611952601f83611326565b915061195d8261191c565b602082019050919050565b6000602082019050818103600083015261198181611945565b9050919050565b7f4e487b7100000000000000000000000000000000000000000000000000000000600052601260045260246000fd5b60006119c282611439565b91506119cd83611439565b9250826119dd576119dc611988565b5b828204905092915050565b60006080820190506119fd600083018761160a565b611a0a60208301866114e5565b611a1760408301856114e5565b611a2460608301846114e5565b95945050505050565b7f4f776e61626c653a206e6577206f776e657220697320746865207a65726f206160008201527f6464726573730000000000000000000000000000000000000000000000000000602082015250565b6000611a89602683611326565b9150611a9482611a2d565b604082019050919050565b60006020820190508181036000830152611ab881611a7c565b9050919050565b7f45524332303a20617070726f76652066726f6d20746865207a65726f2061646460008201527f7265737300000000000000000000000000000000000000000000000000000000602082015250565b6000611b1b602483611326565b9150611b2682611abf565b604082019050919050565b60006020820190508181036000830152611b4a81611b0e565b9050919050565b7f45524332303a20617070726f766520746f20746865207a65726f20616464726560008201527f7373000000000000000000000000000000000000000000000000000000000000602082015250565b6000611bad602283611326565b9150611bb882611b51565b604082019050919050565b60006020820190508181036000830152611bdc81611ba0565b9050919050565b7f45524332303a20696e73756666696369656e7420616c6c6f77616e6365000000600082015250565b6000611c19601d83611326565b9150611c2482611be3565b602082019050919050565b60006020820190508181036000830152611c4881611c0c565b9050919050565b7f45524332303a207472616e736665722066726f6d20746865207a65726f20616460008201527f6472657373000000000000000000000000000000000000000000000000000000602082015250565b6000611cab602583611326565b9150611cb682611c4f565b604082019050919050565b60006020820190508181036000830152611cda81611c9e565b9050919050565b7f45524332303a207472616e7366657220746f20746865207a65726f206164647260008201527f6573730000000000000000000000000000000000000000000000000000000000602082015250565b6000611d3d602383611326565b9150611d4882611ce1565b604082019050919050565b60006020820190508181036000830152611d6c81611d30565b9050919050565b7f45524332303a207472616e7366657220616d6f756e742065786365656473206260008201527f616c616e63650000000000000000000000000000000000000000000000000000602082015250565b6000611dcf602683611326565b9150611dda82611d73565b604082019050919050565b60006020820190508181036000830152611dfe81611dc2565b905091905056fea2646970667358221220cec6596f638bae8803b5dfa9af385f1ae80e090e97d8751af8a7e8912926534d64736f6c634300080d0033",
  "immutableReferences": {},
  "source": "// SPDX-License-Identifier: MIT\r\npragma solidity 0.8.13;\r\n\r\n\r\nimport \"openzeppelin-solidity/contracts/token/ERC20/ERC20.sol\";\r\nimport \"openzeppelin-solidity/contracts/access/Ownable.sol\";\r\n\r\ncontract ERC20FixedSupply is ERC20, Ownable {\r\n  uint256 public tokenPrice;\r\n  uint256 public initialSupply;\r\n  bool public antibot;\r\n  \r\n  uint112 public startTime;\r\n  uint112 public endTime;\r\n  uint8 private _decimals;\r\n\r\n  event BuyToken(address to, uint256 ethAmount, uint256 tokenAmount, uint256 timestamp);\r\n\r\n  constructor(string memory _name, string memory _symbol, uint8 decimals_, uint256 _initialSupply, uint256 _tokenPrice, bool _antibot, uint112 _startTime, uint112 _endTime) ERC20(_name, _symbol) {\r\n    _decimals = decimals_;\r\n    tokenPrice = _tokenPrice;\r\n    initialSupply = _initialSupply;\r\n    antibot = _antibot;\r\n    startTime = _startTime;\r\n    endTime = _endTime;\r\n    _mint(address(this), _initialSupply);\r\n  }\r\n\r\n  function decimals() public view virtual override returns (uint8) {\r\n    return _decimals;\r\n  }\r\n\r\n  function buyToken() public payable returns(bool) {\r\n    if(antibot){\r\n      require(address(msg.sender).balance > 0.1 ether, \"Balances should more than 0.1\");\r\n    }\r\n    require(block.timestamp> startTime && block.timestamp < endTime, \"Either ended or not started yet\");\r\n    uint256 amount = msg.value/tokenPrice;\r\n    payable(owner()).transfer(msg.value);\r\n    _transfer(address(this), msg.sender, amount);\r\n    emit BuyToken(msg.sender, msg.value, amount, block.timestamp);\r\n    return true;\r\n  }\r\n\r\n  function withdrawUnsold() public onlyOwner {\r\n    _transfer(address(this), owner(), balanceOf(address(this)));\r\n  }\r\n\r\n  function setAntibot(bool _newState) external onlyOwner {\r\n    antibot = _newState;\r\n  }\r\n}",
  "sourcePath": "C:\\Users\\JSON-BSON\\Documents\\blockboyBenji\\Launchpad\\main-template\\contracts\\contracts\\ERC20FixedSupply.sol",
  "compiler": {
    "name": "solc",
    "version": "0.8.13+commit.abaa5c0e.Emscripten.clang"
  },
  "schemaVersion": "3.4.7",
  "updatedAt": "2022-11-15T08:12:11.955Z",
  "devdoc": {
    "kind": "dev",
    "methods": {
      "allowance(address,address)": {
        "details": "See {IERC20-allowance}."
      },
      "approve(address,uint256)": {
        "details": "See {IERC20-approve}. NOTE: If `amount` is the maximum `uint256`, the allowance is not updated on `transferFrom`. This is semantically equivalent to an infinite approval. Requirements: - `spender` cannot be the zero address."
      },
      "balanceOf(address)": {
        "details": "See {IERC20-balanceOf}."
      },
      "decimals()": {
        "details": "Returns the number of decimals used to get its user representation. For example, if `decimals` equals `2`, a balance of `505` tokens should be displayed to a user as `5.05` (`505 / 10 ** 2`). Tokens usually opt for a value of 18, imitating the relationship between Ether and Wei. This is the value {ERC20} uses, unless this function is overridden; NOTE: This information is only used for _display_ purposes: it in no way affects any of the arithmetic of the contract, including {IERC20-balanceOf} and {IERC20-transfer}."
      },
      "decreaseAllowance(address,uint256)": {
        "details": "Atomically decreases the allowance granted to `spender` by the caller. This is an alternative to {approve} that can be used as a mitigation for problems described in {IERC20-approve}. Emits an {Approval} event indicating the updated allowance. Requirements: - `spender` cannot be the zero address. - `spender` must have allowance for the caller of at least `subtractedValue`."
      },
      "increaseAllowance(address,uint256)": {
        "details": "Atomically increases the allowance granted to `spender` by the caller. This is an alternative to {approve} that can be used as a mitigation for problems described in {IERC20-approve}. Emits an {Approval} event indicating the updated allowance. Requirements: - `spender` cannot be the zero address."
      },
      "name()": {
        "details": "Returns the name of the token."
      },
      "owner()": {
        "details": "Returns the address of the current owner."
      },
      "renounceOwnership()": {
        "details": "Leaves the contract without owner. It will not be possible to call `onlyOwner` functions anymore. Can only be called by the current owner. NOTE: Renouncing ownership will leave the contract without an owner, thereby removing any functionality that is only available to the owner."
      },
      "symbol()": {
        "details": "Returns the symbol of the token, usually a shorter version of the name."
      },
      "totalSupply()": {
        "details": "See {IERC20-totalSupply}."
      },
      "transfer(address,uint256)": {
        "details": "See {IERC20-transfer}. Requirements: - `to` cannot be the zero address. - the caller must have a balance of at least `amount`."
      },
      "transferFrom(address,address,uint256)": {
        "details": "See {IERC20-transferFrom}. Emits an {Approval} event indicating the updated allowance. This is not required by the EIP. See the note at the beginning of {ERC20}. NOTE: Does not update the allowance if the current allowance is the maximum `uint256`. Requirements: - `from` and `to` cannot be the zero address. - `from` must have a balance of at least `amount`. - the caller must have allowance for ``from``'s tokens of at least `amount`."
      },
      "transferOwnership(address)": {
        "details": "Transfers ownership of the contract to a new account (`newOwner`). Can only be called by the current owner."
      }
    },
    "version": 1
  },
  "userdoc": {
    "kind": "user",
    "methods": {},
    "version": 1
  }
}