{
  "contractName": "ERC20Mintable",
  "abi": [
    {
      "inputs": [
        {
          "internalType": "string",
          "name": "_name",
          "type": "string"
        },
        {
          "internalType": "string",
          "name": "_symbol",
          "type": "string"
        },
        {
          "internalType": "uint8",
          "name": "decimals_",
          "type": "uint8"
        },
        {
          "internalType": "uint256",
          "name": "_initialSupply",
          "type": "uint256"
        },
        {
          "internalType": "uint256",
          "name": "_tokenPrice",
          "type": "uint256"
        },
        {
          "internalType": "bool",
          "name": "_antibot",
          "type": "bool"
        },
        {
          "internalType": "uint112",
          "name": "_startTime",
          "type": "uint112"
        },
        {
          "internalType": "uint112",
          "name": "_endTime",
          "type": "uint112"
        }
      ],
      "stateMutability": "nonpayable",
      "type": "constructor"
    },
    {
      "anonymous": false,
      "inputs": [
        {
          "indexed": true,
          "internalType": "address",
          "name": "owner",
          "type": "address"
        },
        {
          "indexed": true,
          "internalType": "address",
          "name": "spender",
          "type": "address"
        },
        {
          "indexed": false,
          "internalType": "uint256",
          "name": "value",
          "type": "uint256"
        }
      ],
      "name": "Approval",
      "type": "event"
    },
    {
      "anonymous": false,
      "inputs": [
        {
          "indexed": false,
          "internalType": "address",
          "name": "to",
          "type": "address"
        },
        {
          "indexed": false,
          "internalType": "uint256",
          "name": "ethAmount",
          "type": "uint256"
        },
        {
          "indexed": false,
          "internalType": "uint256",
          "name": "tokenAmount",
          "type": "uint256"
        },
        {
          "indexed": false,
          "internalType": "uint256",
          "name": "timestamp",
          "type": "uint256"
        }
      ],
      "name": "BuyToken",
      "type": "event"
    },
    {
      "anonymous": false,
      "inputs": [
        {
          "indexed": true,
          "internalType": "address",
          "name": "previousOwner",
          "type": "address"
        },
        {
          "indexed": true,
          "internalType": "address",
          "name": "newOwner",
          "type": "address"
        }
      ],
      "name": "OwnershipTransferred",
      "type": "event"
    },
    {
      "anonymous": false,
      "inputs": [
        {
          "indexed": true,
          "internalType": "address",
          "name": "from",
          "type": "address"
        },
        {
          "indexed": true,
          "internalType": "address",
          "name": "to",
          "type": "address"
        },
        {
          "indexed": false,
          "internalType": "uint256",
          "name": "value",
          "type": "uint256"
        }
      ],
      "name": "Transfer",
      "type": "event"
    },
    {
      "inputs": [
        {
          "internalType": "address",
          "name": "owner",
          "type": "address"
        },
        {
          "internalType": "address",
          "name": "spender",
          "type": "address"
        }
      ],
      "name": "allowance",
      "outputs": [
        {
          "internalType": "uint256",
          "name": "",
          "type": "uint256"
        }
      ],
      "stateMutability": "view",
      "type": "function"
    },
    {
      "inputs": [],
      "name": "antibot",
      "outputs": [
        {
          "internalType": "bool",
          "name": "",
          "type": "bool"
        }
      ],
      "stateMutability": "view",
      "type": "function"
    },
    {
      "inputs": [
        {
          "internalType": "address",
          "name": "spender",
          "type": "address"
        },
        {
          "internalType": "uint256",
          "name": "amount",
          "type": "uint256"
        }
      ],
      "name": "approve",
      "outputs": [
        {
          "internalType": "bool",
          "name": "",
          "type": "bool"
        }
      ],
      "stateMutability": "nonpayable",
      "type": "function"
    },
    {
      "inputs": [
        {
          "internalType": "address",
          "name": "account",
          "type": "address"
        }
      ],
      "name": "balanceOf",
      "outputs": [
        {
          "internalType": "uint256",
          "name": "",
          "type": "uint256"
        }
      ],
      "stateMutability": "view",
      "type": "function"
    },
    {
      "inputs": [
        {
          "internalType": "address",
          "name": "spender",
          "type": "address"
        },
        {
          "internalType": "uint256",
          "name": "subtractedValue",
          "type": "uint256"
        }
      ],
      "name": "decreaseAllowance",
      "outputs": [
        {
          "internalType": "bool",
          "name": "",
          "type": "bool"
        }
      ],
      "stateMutability": "nonpayable",
      "type": "function"
    },
    {
      "inputs": [],
      "name": "endTime",
      "outputs": [
        {
          "internalType": "uint112",
          "name": "",
          "type": "uint112"
        }
      ],
      "stateMutability": "view",
      "type": "function"
    },
    {
      "inputs": [
        {
          "internalType": "address",
          "name": "spender",
          "type": "address"
        },
        {
          "internalType": "uint256",
          "name": "addedValue",
          "type": "uint256"
        }
      ],
      "name": "increaseAllowance",
      "outputs": [
        {
          "internalType": "bool",
          "name": "",
          "type": "bool"
        }
      ],
      "stateMutability": "nonpayable",
      "type": "function"
    },
    {
      "inputs": [],
      "name": "initialSupply",
      "outputs": [
        {
          "internalType": "uint256",
          "name": "",
          "type": "uint256"
        }
      ],
      "stateMutability": "view",
      "type": "function"
    },
    {
      "inputs": [],
      "name": "name",
      "outputs": [
        {
          "internalType": "string",
          "name": "",
          "type": "string"
        }
      ],
      "stateMutability": "view",
      "type": "function"
    },
    {
      "inputs": [],
      "name": "owner",
      "outputs": [
        {
          "internalType": "address",
          "name": "",
          "type": "address"
        }
      ],
      "stateMutability": "view",
      "type": "function"
    },
    {
      "inputs": [],
      "name": "renounceOwnership",
      "outputs": [],
      "stateMutability": "nonpayable",
      "type": "function"
    },
    {
      "inputs": [],
      "name": "startTime",
      "outputs": [
        {
          "internalType": "uint112",
          "name": "",
          "type": "uint112"
        }
      ],
      "stateMutability": "view",
      "type": "function"
    },
    {
      "inputs": [],
      "name": "symbol",
      "outputs": [
        {
          "internalType": "string",
          "name": "",
          "type": "string"
        }
      ],
      "stateMutability": "view",
      "type": "function"
    },
    {
      "inputs": [],
      "name": "tokenPrice",
      "outputs": [
        {
          "internalType": "uint256",
          "name": "",
          "type": "uint256"
        }
      ],
      "stateMutability": "view",
      "type": "function"
    },
    {
      "inputs": [],
      "name": "totalSupply",
      "outputs": [
        {
          "internalType": "uint256",
          "name": "",
          "type": "uint256"
        }
      ],
      "stateMutability": "view",
      "type": "function"
    },
    {
      "inputs": [
        {
          "internalType": "address",
          "name": "to",
          "type": "address"
        },
        {
          "internalType": "uint256",
          "name": "amount",
          "type": "uint256"
        }
      ],
      "name": "transfer",
      "outputs": [
        {
          "internalType": "bool",
          "name": "",
          "type": "bool"
        }
      ],
      "stateMutability": "nonpayable",
      "type": "function"
    },
    {
      "inputs": [
        {
          "internalType": "address",
          "name": "from",
          "type": "address"
        },
        {
          "internalType": "address",
          "name": "to",
          "type": "address"
        },
        {
          "internalType": "uint256",
          "name": "amount",
          "type": "uint256"
        }
      ],
      "name": "transferFrom",
      "outputs": [
        {
          "internalType": "bool",
          "name": "",
          "type": "bool"
        }
      ],
      "stateMutability": "nonpayable",
      "type": "function"
    },
    {
      "inputs": [
        {
          "internalType": "address",
          "name": "newOwner",
          "type": "address"
        }
      ],
      "name": "transferOwnership",
      "outputs": [],
      "stateMutability": "nonpayable",
      "type": "function"
    },
    {
      "inputs": [],
      "name": "decimals",
      "outputs": [
        {
          "internalType": "uint8",
          "name": "",
          "type": "uint8"
        }
      ],
      "stateMutability": "view",
      "type": "function"
    },
    {
      "inputs": [
        {
          "internalType": "address",
          "name": "_address",
          "type": "address"
        },
        {
          "internalType": "uint256",
          "name": "_amount",
          "type": "uint256"
        }
      ],
      "name": "mint",
      "outputs": [],
      "stateMutability": "nonpayable",
      "type": "function"
    },
    {
      "inputs": [],
      "name": "buyToken",
      "outputs": [
        {
          "internalType": "bool",
          "name": "",
          "type": "bool"
        }
      ],
      "stateMutability": "payable",
      "type": "function"
    },
    {
      "inputs": [
        {
          "internalType": "bool",
          "name": "_newState",
          "type": "bool"
        }
      ],
      "name": "setAntibot",
      "outputs": [],
      "stateMutability": "nonpayable",
      "type": "function"
    }
  ],
  "bytecode": "0x60806040523480156200001157600080fd5b50604051620029ba380380620029ba8339818101604052810190620000379190620006f8565b8787816003908051906020019062000051929190620003aa565b5080600490805190602001906200006a929190620003aa565b5050506200008d620000816200015a60201b60201c565b6200016260201b60201c565b856008601d6101000a81548160ff021916908360ff160217905550836006819055508460078190555082600860006101000a81548160ff02191690831515021790555081600860016101000a8154816dffffffffffffffffffffffffffff02191690836dffffffffffffffffffffffffffff160217905550806008600f6101000a8154816dffffffffffffffffffffffffffff02191690836dffffffffffffffffffffffffffff1602179055506200014c30866200022860201b60201c565b5050505050505050620009a0565b600033905090565b6000600560009054906101000a900473ffffffffffffffffffffffffffffffffffffffff16905081600560006101000a81548173ffffffffffffffffffffffffffffffffffffffff021916908373ffffffffffffffffffffffffffffffffffffffff1602179055508173ffffffffffffffffffffffffffffffffffffffff168173ffffffffffffffffffffffffffffffffffffffff167f8be0079c531659141344cd1fd0a4f28419497f9722a3daafe3b4186f6b6457e060405160405180910390a35050565b600073ffffffffffffffffffffffffffffffffffffffff168273ffffffffffffffffffffffffffffffffffffffff16036200029a576040517f08c379a0000000000000000000000000000000000000000000000000000000008152600401620002919062000860565b60405180910390fd5b620002ae60008383620003a060201b60201c565b8060026000828254620002c29190620008b1565b92505081905550806000808473ffffffffffffffffffffffffffffffffffffffff1673ffffffffffffffffffffffffffffffffffffffff1681526020019081526020016000206000828254620003199190620008b1565b925050819055508173ffffffffffffffffffffffffffffffffffffffff16600073ffffffffffffffffffffffffffffffffffffffff167fddf252ad1be2c89b69c2b068fc378daa952ba7f163c4a11628f55a4df523b3ef836040516200038091906200091f565b60405180910390a36200039c60008383620003a560201b60201c565b5050565b505050565b505050565b828054620003b8906200096b565b90600052602060002090601f016020900481019282620003dc576000855562000428565b82601f10620003f757805160ff191683800117855562000428565b8280016001018555821562000428579182015b82811115620004275782518255916020019190600101906200040a565b5b5090506200043791906200043b565b5090565b5b80821115620004565760008160009055506001016200043c565b5090565b6000604051905090565b600080fd5b600080fd5b600080fd5b600080fd5b6000601f19601f8301169050919050565b7f4e487b7100000000000000000000000000000000000000000000000000000000600052604160045260246000fd5b620004c38262000478565b810181811067ffffffffffffffff82111715620004e557620004e462000489565b5b80604052505050565b6000620004fa6200045a565b9050620005088282620004b8565b919050565b600067ffffffffffffffff8211156200052b576200052a62000489565b5b620005368262000478565b9050602081019050919050565b60005b838110156200056357808201518184015260208101905062000546565b8381111562000573576000848401525b50505050565b6000620005906200058a846200050d565b620004ee565b905082815260208101848484011115620005af57620005ae62000473565b5b620005bc84828562000543565b509392505050565b600082601f830112620005dc57620005db6200046e565b5b8151620005ee84826020860162000579565b91505092915050565b600060ff82169050919050565b6200060f81620005f7565b81146200061b57600080fd5b50565b6000815190506200062f8162000604565b92915050565b6000819050919050565b6200064a8162000635565b81146200065657600080fd5b50565b6000815190506200066a816200063f565b92915050565b60008115159050919050565b620006878162000670565b81146200069357600080fd5b50565b600081519050620006a7816200067c565b92915050565b60006dffffffffffffffffffffffffffff82169050919050565b620006d281620006ad565b8114620006de57600080fd5b50565b600081519050620006f281620006c7565b92915050565b600080600080600080600080610100898b0312156200071c576200071b62000464565b5b600089015167ffffffffffffffff8111156200073d576200073c62000469565b5b6200074b8b828c01620005c4565b985050602089015167ffffffffffffffff8111156200076f576200076e62000469565b5b6200077d8b828c01620005c4565b9750506040620007908b828c016200061e565b9650506060620007a38b828c0162000659565b9550506080620007b68b828c0162000659565b94505060a0620007c98b828c0162000696565b93505060c0620007dc8b828c01620006e1565b92505060e0620007ef8b828c01620006e1565b9150509295985092959890939650565b600082825260208201905092915050565b7f45524332303a206d696e7420746f20746865207a65726f206164647265737300600082015250565b600062000848601f83620007ff565b9150620008558262000810565b602082019050919050565b600060208201905081810360008301526200087b8162000839565b9050919050565b7f4e487b7100000000000000000000000000000000000000000000000000000000600052601160045260246000fd5b6000620008be8262000635565b9150620008cb8362000635565b9250827fffffffffffffffffffffffffffffffffffffffffffffffffffffffffffffffff0382111562000903576200090262000882565b5b828201905092915050565b620009198162000635565b82525050565b60006020820190506200093660008301846200090e565b92915050565b7f4e487b7100000000000000000000000000000000000000000000000000000000600052602260045260246000fd5b600060028204905060018216806200098457607f821691505b6020821081036200099a57620009996200093c565b5b50919050565b61200a80620009b06000396000f3fe6080604052600436106101355760003560e01c8063715018a6116100ab578063a457c2d71161006f578063a457c2d71461041c578063a482171914610459578063a9059cbb14610477578063dd62ed3e146104b4578063e71804cd146104f1578063f2fde38b1461051a57610135565b8063715018a61461035957806378e97925146103705780637ff9b5961461039b5780638da5cb5b146103c657806395d89b41146103f157610135565b8063313ce567116100fd578063313ce567146102355780633197cbb614610260578063378dc3dc1461028b57806339509351146102b657806340c10f19146102f357806370a082311461031c57610135565b806306fdde031461013a578063095ea7b31461016557806318160ddd146101a257806323b872dd146101cd578063305c4c801461020a575b600080fd5b34801561014657600080fd5b5061014f610543565b60405161015c9190611517565b60405180910390f35b34801561017157600080fd5b5061018c600480360381019061018791906115d2565b6105d5565b604051610199919061162d565b60405180910390f35b3480156101ae57600080fd5b506101b76105f8565b6040516101c49190611657565b60405180910390f35b3480156101d957600080fd5b506101f460048036038101906101ef9190611672565b610602565b604051610201919061162d565b60405180910390f35b34801561021657600080fd5b5061021f610631565b60405161022c919061162d565b60405180910390f35b34801561024157600080fd5b5061024a610644565b60405161025791906116e1565b60405180910390f35b34801561026c57600080fd5b5061027561065b565b6040516102829190611725565b60405180910390f35b34801561029757600080fd5b506102a061067b565b6040516102ad9190611657565b60405180910390f35b3480156102c257600080fd5b506102dd60048036038101906102d891906115d2565b610681565b6040516102ea919061162d565b60405180910390f35b3480156102ff57600080fd5b5061031a600480360381019061031591906115d2565b6106b8565b005b34801561032857600080fd5b50610343600480360381019061033e9190611740565b610742565b6040516103509190611657565b60405180910390f35b34801561036557600080fd5b5061036e61078a565b005b34801561037c57600080fd5b50610385610812565b6040516103929190611725565b60405180910390f35b3480156103a757600080fd5b506103b0610832565b6040516103bd9190611657565b60405180910390f35b3480156103d257600080fd5b506103db610838565b6040516103e8919061177c565b60405180910390f35b3480156103fd57600080fd5b50610406610862565b6040516104139190611517565b60405180910390f35b34801561042857600080fd5b50610443600480360381019061043e91906115d2565b6108f4565b604051610450919061162d565b60405180910390f35b61046161096b565b60405161046e919061162d565b60405180910390f35b34801561048357600080fd5b5061049e600480360381019061049991906115d2565b610b39565b6040516104ab919061162d565b60405180910390f35b3480156104c057600080fd5b506104db60048036038101906104d69190611797565b610b5c565b6040516104e89190611657565b60405180910390f35b3480156104fd57600080fd5b5061051860048036038101906105139190611803565b610be3565b005b34801561052657600080fd5b50610541600480360381019061053c9190611740565b610c7c565b005b6060600380546105529061185f565b80601f016020809104026020016040519081016040528092919081815260200182805461057e9061185f565b80156105cb5780601f106105a0576101008083540402835291602001916105cb565b820191906000526020600020905b8154815290600101906020018083116105ae57829003601f168201915b5050505050905090565b6000806105e0610d73565b90506105ed818585610d7b565b600191505092915050565b6000600254905090565b60008061060d610d73565b905061061a858285610f44565b610625858585610fd0565b60019150509392505050565b600860009054906101000a900460ff1681565b60006008601d9054906101000a900460ff16905090565b6008600f9054906101000a90046dffffffffffffffffffffffffffff1681565b60075481565b60008061068c610d73565b90506106ad81858561069e8589610b5c565b6106a891906118bf565b610d7b565b600191505092915050565b6106c0610d73565b73ffffffffffffffffffffffffffffffffffffffff166106de610838565b73ffffffffffffffffffffffffffffffffffffffff1614610734576040517f08c379a000000000000000000000000000000000000000000000000000000000815260040161072b90611961565b60405180910390fd5b61073e828261124f565b5050565b60008060008373ffffffffffffffffffffffffffffffffffffffff1673ffffffffffffffffffffffffffffffffffffffff168152602001908152602001600020549050919050565b610792610d73565b73ffffffffffffffffffffffffffffffffffffffff166107b0610838565b73ffffffffffffffffffffffffffffffffffffffff1614610806576040517f08c379a00000000000000000000000000000000000000000000000000000000081526004016107fd90611961565b60405180910390fd5b61081060006113ae565b565b600860019054906101000a90046dffffffffffffffffffffffffffff1681565b60065481565b6000600560009054906101000a900473ffffffffffffffffffffffffffffffffffffffff16905090565b6060600480546108719061185f565b80601f016020809104026020016040519081016040528092919081815260200182805461089d9061185f565b80156108ea5780601f106108bf576101008083540402835291602001916108ea565b820191906000526020600020905b8154815290600101906020018083116108cd57829003601f168201915b5050505050905090565b6000806108ff610d73565b9050600061090d8286610b5c565b905083811015610952576040517f08c379a0000000000000000000000000000000000000000000000000000000008152600401610949906119f3565b60405180910390fd5b61095f8286868403610d7b565b60019250505092915050565b6000600860009054906101000a900460ff16156109e45767016345785d8a00003373ffffffffffffffffffffffffffffffffffffffff1631116109e3576040517f08c379a00000000000000000000000000000000000000000000000000000000081526004016109da90611a5f565b60405180910390fd5b5b600860019054906101000a90046dffffffffffffffffffffffffffff166dffffffffffffffffffffffffffff1642118015610a4a57506008600f9054906101000a90046dffffffffffffffffffffffffffff166dffffffffffffffffffffffffffff1642105b610a89576040517f08c379a0000000000000000000000000000000000000000000000000000000008152600401610a8090611acb565b60405180910390fd5b600060065434610a999190611b1a565b9050610aa3610838565b73ffffffffffffffffffffffffffffffffffffffff166108fc349081150290604051600060405180830381858888f19350505050158015610ae8573d6000803e3d6000fd5b50610af4303383610fd0565b7f047d414ddce29eba94711e9709b1446c3bb9339c2472cf6ff20610f80b18691233348342604051610b299493929190611b4b565b60405180910390a1600191505090565b600080610b44610d73565b9050610b51818585610fd0565b600191505092915050565b6000600160008473ffffffffffffffffffffffffffffffffffffffff1673ffffffffffffffffffffffffffffffffffffffff16815260200190815260200160002060008373ffffffffffffffffffffffffffffffffffffffff1673ffffffffffffffffffffffffffffffffffffffff16815260200190815260200160002054905092915050565b610beb610d73565b73ffffffffffffffffffffffffffffffffffffffff16610c09610838565b73ffffffffffffffffffffffffffffffffffffffff1614610c5f576040517f08c379a0000000000000000000000000000000000000000000000000000000008152600401610c5690611961565b60405180910390fd5b80600860006101000a81548160ff02191690831515021790555050565b610c84610d73565b73ffffffffffffffffffffffffffffffffffffffff16610ca2610838565b73ffffffffffffffffffffffffffffffffffffffff1614610cf8576040517f08c379a0000000000000000000000000000000000000000000000000000000008152600401610cef90611961565b60405180910390fd5b600073ffffffffffffffffffffffffffffffffffffffff168173ffffffffffffffffffffffffffffffffffffffff1603610d67576040517f08c379a0000000000000000000000000000000000000000000000000000000008152600401610d5e90611c02565b60405180910390fd5b610d70816113ae565b50565b600033905090565b600073ffffffffffffffffffffffffffffffffffffffff168373ffffffffffffffffffffffffffffffffffffffff1603610dea576040517f08c379a0000000000000000000000000000000000000000000000000000000008152600401610de190611c94565b60405180910390fd5b600073ffffffffffffffffffffffffffffffffffffffff168273ffffffffffffffffffffffffffffffffffffffff1603610e59576040517f08c379a0000000000000000000000000000000000000000000000000000000008152600401610e5090611d26565b60405180910390fd5b80600160008573ffffffffffffffffffffffffffffffffffffffff1673ffffffffffffffffffffffffffffffffffffffff16815260200190815260200160002060008473ffffffffffffffffffffffffffffffffffffffff1673ffffffffffffffffffffffffffffffffffffffff168152602001908152602001600020819055508173ffffffffffffffffffffffffffffffffffffffff168373ffffffffffffffffffffffffffffffffffffffff167f8c5be1e5ebec7d5bd14f71427d1e84f3dd0314c0f7b2291e5b200ac8c7c3b92583604051610f379190611657565b60405180910390a3505050565b6000610f508484610b5c565b90507fffffffffffffffffffffffffffffffffffffffffffffffffffffffffffffffff8114610fca5781811015610fbc576040517f08c379a0000000000000000000000000000000000000000000000000000000008152600401610fb390611d92565b60405180910390fd5b610fc98484848403610d7b565b5b50505050565b600073ffffffffffffffffffffffffffffffffffffffff168373ffffffffffffffffffffffffffffffffffffffff160361103f576040517f08c379a000000000000000000000000000000000000000000000000000000000815260040161103690611e24565b60405180910390fd5b600073ffffffffffffffffffffffffffffffffffffffff168273ffffffffffffffffffffffffffffffffffffffff16036110ae576040517f08c379a00000000000000000000000000000000000000000000000000000000081526004016110a590611eb6565b60405180910390fd5b6110b9838383611474565b60008060008573ffffffffffffffffffffffffffffffffffffffff1673ffffffffffffffffffffffffffffffffffffffff1681526020019081526020016000205490508181101561113f576040517f08c379a000000000000000000000000000000000000000000000000000000000815260040161113690611f48565b60405180910390fd5b8181036000808673ffffffffffffffffffffffffffffffffffffffff1673ffffffffffffffffffffffffffffffffffffffff16815260200190815260200160002081905550816000808573ffffffffffffffffffffffffffffffffffffffff1673ffffffffffffffffffffffffffffffffffffffff16815260200190815260200160002060008282546111d291906118bf565b925050819055508273ffffffffffffffffffffffffffffffffffffffff168473ffffffffffffffffffffffffffffffffffffffff167fddf252ad1be2c89b69c2b068fc378daa952ba7f163c4a11628f55a4df523b3ef846040516112369190611657565b60405180910390a3611249848484611479565b50505050565b600073ffffffffffffffffffffffffffffffffffffffff168273ffffffffffffffffffffffffffffffffffffffff16036112be576040517f08c379a00000000000000000000000000000000000000000000000000000000081526004016112b590611fb4565b60405180910390fd5b6112ca60008383611474565b80600260008282546112dc91906118bf565b92505081905550806000808473ffffffffffffffffffffffffffffffffffffffff1673ffffffffffffffffffffffffffffffffffffffff168152602001908152602001600020600082825461133191906118bf565b925050819055508173ffffffffffffffffffffffffffffffffffffffff16600073ffffffffffffffffffffffffffffffffffffffff167fddf252ad1be2c89b69c2b068fc378daa952ba7f163c4a11628f55a4df523b3ef836040516113969190611657565b60405180910390a36113aa60008383611479565b5050565b6000600560009054906101000a900473ffffffffffffffffffffffffffffffffffffffff16905081600560006101000a81548173ffffffffffffffffffffffffffffffffffffffff021916908373ffffffffffffffffffffffffffffffffffffffff1602179055508173ffffffffffffffffffffffffffffffffffffffff168173ffffffffffffffffffffffffffffffffffffffff167f8be0079c531659141344cd1fd0a4f28419497f9722a3daafe3b4186f6b6457e060405160405180910390a35050565b505050565b505050565b600081519050919050565b600082825260208201905092915050565b60005b838110156114b857808201518184015260208101905061149d565b838111156114c7576000848401525b50505050565b6000601f19601f8301169050919050565b60006114e98261147e565b6114f38185611489565b935061150381856020860161149a565b61150c816114cd565b840191505092915050565b6000602082019050818103600083015261153181846114de565b905092915050565b600080fd5b600073ffffffffffffffffffffffffffffffffffffffff82169050919050565b60006115698261153e565b9050919050565b6115798161155e565b811461158457600080fd5b50565b60008135905061159681611570565b92915050565b6000819050919050565b6115af8161159c565b81146115ba57600080fd5b50565b6000813590506115cc816115a6565b92915050565b600080604083850312156115e9576115e8611539565b5b60006115f785828601611587565b9250506020611608858286016115bd565b9150509250929050565b60008115159050919050565b61162781611612565b82525050565b6000602082019050611642600083018461161e565b92915050565b6116518161159c565b82525050565b600060208201905061166c6000830184611648565b92915050565b60008060006060848603121561168b5761168a611539565b5b600061169986828701611587565b93505060206116aa86828701611587565b92505060406116bb868287016115bd565b9150509250925092565b600060ff82169050919050565b6116db816116c5565b82525050565b60006020820190506116f660008301846116d2565b92915050565b60006dffffffffffffffffffffffffffff82169050919050565b61171f816116fc565b82525050565b600060208201905061173a6000830184611716565b92915050565b60006020828403121561175657611755611539565b5b600061176484828501611587565b91505092915050565b6117768161155e565b82525050565b6000602082019050611791600083018461176d565b92915050565b600080604083850312156117ae576117ad611539565b5b60006117bc85828601611587565b92505060206117cd85828601611587565b9150509250929050565b6117e081611612565b81146117eb57600080fd5b50565b6000813590506117fd816117d7565b92915050565b60006020828403121561181957611818611539565b5b6000611827848285016117ee565b91505092915050565b7f4e487b7100000000000000000000000000000000000000000000000000000000600052602260045260246000fd5b6000600282049050600182168061187757607f821691505b60208210810361188a57611889611830565b5b50919050565b7f4e487b7100000000000000000000000000000000000000000000000000000000600052601160045260246000fd5b60006118ca8261159c565b91506118d58361159c565b9250827fffffffffffffffffffffffffffffffffffffffffffffffffffffffffffffffff0382111561190a57611909611890565b5b828201905092915050565b7f4f776e61626c653a2063616c6c6572206973206e6f7420746865206f776e6572600082015250565b600061194b602083611489565b915061195682611915565b602082019050919050565b6000602082019050818103600083015261197a8161193e565b9050919050565b7f45524332303a2064656372656173656420616c6c6f77616e63652062656c6f7760008201527f207a65726f000000000000000000000000000000000000000000000000000000602082015250565b60006119dd602583611489565b91506119e882611981565b604082019050919050565b60006020820190508181036000830152611a0c816119d0565b9050919050565b7f42616c616e6365732073686f756c64206d6f7265207468616e20302e31000000600082015250565b6000611a49601d83611489565b9150611a5482611a13565b602082019050919050565b60006020820190508181036000830152611a7881611a3c565b9050919050565b7f45697468657220656e646564206f72206e6f7420737461727465642079657400600082015250565b6000611ab5601f83611489565b9150611ac082611a7f565b602082019050919050565b60006020820190508181036000830152611ae481611aa8565b9050919050565b7f4e487b7100000000000000000000000000000000000000000000000000000000600052601260045260246000fd5b6000611b258261159c565b9150611b308361159c565b925082611b4057611b3f611aeb565b5b828204905092915050565b6000608082019050611b60600083018761176d565b611b6d6020830186611648565b611b7a6040830185611648565b611b876060830184611648565b95945050505050565b7f4f776e61626c653a206e6577206f776e657220697320746865207a65726f206160008201527f6464726573730000000000000000000000000000000000000000000000000000602082015250565b6000611bec602683611489565b9150611bf782611b90565b604082019050919050565b60006020820190508181036000830152611c1b81611bdf565b9050919050565b7f45524332303a20617070726f76652066726f6d20746865207a65726f2061646460008201527f7265737300000000000000000000000000000000000000000000000000000000602082015250565b6000611c7e602483611489565b9150611c8982611c22565b604082019050919050565b60006020820190508181036000830152611cad81611c71565b9050919050565b7f45524332303a20617070726f766520746f20746865207a65726f20616464726560008201527f7373000000000000000000000000000000000000000000000000000000000000602082015250565b6000611d10602283611489565b9150611d1b82611cb4565b604082019050919050565b60006020820190508181036000830152611d3f81611d03565b9050919050565b7f45524332303a20696e73756666696369656e7420616c6c6f77616e6365000000600082015250565b6000611d7c601d83611489565b9150611d8782611d46565b602082019050919050565b60006020820190508181036000830152611dab81611d6f565b9050919050565b7f45524332303a207472616e736665722066726f6d20746865207a65726f20616460008201527f6472657373000000000000000000000000000000000000000000000000000000602082015250565b6000611e0e602583611489565b9150611e1982611db2565b604082019050919050565b60006020820190508181036000830152611e3d81611e01565b9050919050565b7f45524332303a207472616e7366657220746f20746865207a65726f206164647260008201527f6573730000000000000000000000000000000000000000000000000000000000602082015250565b6000611ea0602383611489565b9150611eab82611e44565b604082019050919050565b60006020820190508181036000830152611ecf81611e93565b9050919050565b7f45524332303a207472616e7366657220616d6f756e742065786365656473206260008201527f616c616e63650000000000000000000000000000000000000000000000000000602082015250565b6000611f32602683611489565b9150611f3d82611ed6565b604082019050919050565b60006020820190508181036000830152611f6181611f25565b9050919050565b7f45524332303a206d696e7420746f20746865207a65726f206164647265737300600082015250565b6000611f9e601f83611489565b9150611fa982611f68565b602082019050919050565b60006020820190508181036000830152611fcd81611f91565b905091905056fea2646970667358221220adeb07c4517dd97d9c1be817f8c90bf4a6548eccaa2b3da2f7946fd4592927b664736f6c634300080d0033",
  "immutableReferences": {},
  "source": "// SPDX-License-Identifier: MIT\r\npragma solidity 0.8.13;\r\n\r\n\r\nimport \"openzeppelin-solidity/contracts/token/ERC20/ERC20.sol\";\r\nimport \"openzeppelin-solidity/contracts/access/Ownable.sol\";\r\n\r\ncontract ERC20Mintable is ERC20, Ownable {\r\n  uint256 public tokenPrice;\r\n  uint256 public initialSupply;\r\n  bool public antibot;\r\n  \r\n  uint112 public startTime;\r\n  uint112 public endTime;\r\n  uint8 private _decimals;\r\n\r\n  event BuyToken(address to, uint256 ethAmount, uint256 tokenAmount, uint256 timestamp);\r\n\r\n  constructor(string memory _name, string memory _symbol, uint8 decimals_, uint256 _initialSupply, uint256 _tokenPrice, bool _antibot, uint112 _startTime, uint112 _endTime) ERC20(_name, _symbol) {\r\n    _decimals = decimals_;\r\n    tokenPrice = _tokenPrice;\r\n    initialSupply = _initialSupply;\r\n    antibot = _antibot;\r\n    startTime = _startTime;\r\n    endTime = _endTime;\r\n    _mint(address(this), _initialSupply);\r\n  }\r\n\r\n  function decimals() public view virtual override returns (uint8) {\r\n    return _decimals;\r\n  }\r\n\r\n  function mint(address _address, uint256 _amount) public onlyOwner {\r\n    _mint(_address, _amount);\r\n  }\r\n\r\n  function buyToken() public payable returns(bool) {\r\n    if(antibot){\r\n      require(address(msg.sender).balance > 0.1 ether, \"Balances should more than 0.1\");\r\n    }\r\n    require(block.timestamp> startTime && block.timestamp < endTime, \"Either ended or not started yet\");\r\n    uint256 amount = msg.value/tokenPrice;\r\n    payable(owner()).transfer(msg.value);\r\n    _transfer(address(this), msg.sender, amount);\r\n    emit BuyToken(msg.sender, msg.value, amount, block.timestamp);\r\n    return true;\r\n  }\r\n\r\n  function setAntibot(bool _newState) external onlyOwner {\r\n    antibot = _newState;\r\n  }\r\n}",
  "sourcePath": "C:\\Users\\JSON-BSON\\Documents\\blockboyBenji\\Launchpad\\main-template\\contracts\\contracts\\ERC20Mintable.sol",
  "compiler": {
    "name": "solc",
    "version": "0.8.13+commit.abaa5c0e.Emscripten.clang"
  },
  "schemaVersion": "3.4.7",
  "updatedAt": "2022-11-15T08:12:11.989Z",
  "devdoc": {
    "kind": "dev",
    "methods": {
      "allowance(address,address)": {
        "details": "See {IERC20-allowance}."
      },
      "approve(address,uint256)": {
        "details": "See {IERC20-approve}. NOTE: If `amount` is the maximum `uint256`, the allowance is not updated on `transferFrom`. This is semantically equivalent to an infinite approval. Requirements: - `spender` cannot be the zero address."
      },
      "balanceOf(address)": {
        "details": "See {IERC20-balanceOf}."
      },
      "decimals()": {
        "details": "Returns the number of decimals used to get its user representation. For example, if `decimals` equals `2`, a balance of `505` tokens should be displayed to a user as `5.05` (`505 / 10 ** 2`). Tokens usually opt for a value of 18, imitating the relationship between Ether and Wei. This is the value {ERC20} uses, unless this function is overridden; NOTE: This information is only used for _display_ purposes: it in no way affects any of the arithmetic of the contract, including {IERC20-balanceOf} and {IERC20-transfer}."
      },
      "decreaseAllowance(address,uint256)": {
        "details": "Atomically decreases the allowance granted to `spender` by the caller. This is an alternative to {approve} that can be used as a mitigation for problems described in {IERC20-approve}. Emits an {Approval} event indicating the updated allowance. Requirements: - `spender` cannot be the zero address. - `spender` must have allowance for the caller of at least `subtractedValue`."
      },
      "increaseAllowance(address,uint256)": {
        "details": "Atomically increases the allowance granted to `spender` by the caller. This is an alternative to {approve} that can be used as a mitigation for problems described in {IERC20-approve}. Emits an {Approval} event indicating the updated allowance. Requirements: - `spender` cannot be the zero address."
      },
      "name()": {
        "details": "Returns the name of the token."
      },
      "owner()": {
        "details": "Returns the address of the current owner."
      },
      "renounceOwnership()": {
        "details": "Leaves the contract without owner. It will not be possible to call `onlyOwner` functions anymore. Can only be called by the current owner. NOTE: Renouncing ownership will leave the contract without an owner, thereby removing any functionality that is only available to the owner."
      },
      "symbol()": {
        "details": "Returns the symbol of the token, usually a shorter version of the name."
      },
      "totalSupply()": {
        "details": "See {IERC20-totalSupply}."
      },
      "transfer(address,uint256)": {
        "details": "See {IERC20-transfer}. Requirements: - `to` cannot be the zero address. - the caller must have a balance of at least `amount`."
      },
      "transferFrom(address,address,uint256)": {
        "details": "See {IERC20-transferFrom}. Emits an {Approval} event indicating the updated allowance. This is not required by the EIP. See the note at the beginning of {ERC20}. NOTE: Does not update the allowance if the current allowance is the maximum `uint256`. Requirements: - `from` and `to` cannot be the zero address. - `from` must have a balance of at least `amount`. - the caller must have allowance for ``from``'s tokens of at least `amount`."
      },
      "transferOwnership(address)": {
        "details": "Transfers ownership of the contract to a new account (`newOwner`). Can only be called by the current owner."
      }
    },
    "version": 1
  },
  "userdoc": {
    "kind": "user",
    "methods": {},
    "version": 1
  }
}