{
  "contractName": "NftQueryable",
  "abi": [
    {
      "inputs": [
        {
          "internalType": "string",
          "name": "_name",
          "type": "string"
        },
        {
          "internalType": "string",
          "name": "_symbol",
          "type": "string"
        },
        {
          "internalType": "string",
          "name": "baseUri_",
          "type": "string"
        },
        {
          "internalType": "uint112",
          "name": "_nftPrice",
          "type": "uint112"
        },
        {
          "internalType": "uint112",
          "name": "_maxSupply",
          "type": "uint112"
        },
        {
          "internalType": "bool",
          "name": "_antibot",
          "type": "bool"
        },
        {
          "internalType": "uint112",
          "name": "_startTime",
          "type": "uint112"
        },
        {
          "internalType": "uint112",
          "name": "_endTime",
          "type": "uint112"
        }
      ],
      "stateMutability": "nonpayable",
      "type": "constructor"
    },
    {
      "inputs": [],
      "name": "ApprovalCallerNotOwnerNorApproved",
      "type": "error"
    },
    {
      "inputs": [],
      "name": "ApprovalQueryForNonexistentToken",
      "type": "error"
    },
    {
      "inputs": [],
      "name": "BalanceQueryForZeroAddress",
      "type": "error"
    },
    {
      "inputs": [],
      "name": "InvalidQueryRange",
      "type": "error"
    },
    {
      "inputs": [],
      "name": "MintERC2309QuantityExceedsLimit",
      "type": "error"
    },
    {
      "inputs": [],
      "name": "MintToZeroAddress",
      "type": "error"
    },
    {
      "inputs": [],
      "name": "MintZeroQuantity",
      "type": "error"
    },
    {
      "inputs": [],
      "name": "OwnerQueryForNonexistentToken",
      "type": "error"
    },
    {
      "inputs": [],
      "name": "OwnershipNotInitializedForExtraData",
      "type": "error"
    },
    {
      "inputs": [],
      "name": "TransferCallerNotOwnerNorApproved",
      "type": "error"
    },
    {
      "inputs": [],
      "name": "TransferFromIncorrectOwner",
      "type": "error"
    },
    {
      "inputs": [],
      "name": "TransferToNonERC721ReceiverImplementer",
      "type": "error"
    },
    {
      "inputs": [],
      "name": "TransferToZeroAddress",
      "type": "error"
    },
    {
      "inputs": [],
      "name": "URIQueryForNonexistentToken",
      "type": "error"
    },
    {
      "anonymous": false,
      "inputs": [
        {
          "indexed": true,
          "internalType": "address",
          "name": "owner",
          "type": "address"
        },
        {
          "indexed": true,
          "internalType": "address",
          "name": "approved",
          "type": "address"
        },
        {
          "indexed": true,
          "internalType": "uint256",
          "name": "tokenId",
          "type": "uint256"
        }
      ],
      "name": "Approval",
      "type": "event"
    },
    {
      "anonymous": false,
      "inputs": [
        {
          "indexed": true,
          "internalType": "address",
          "name": "owner",
          "type": "address"
        },
        {
          "indexed": true,
          "internalType": "address",
          "name": "operator",
          "type": "address"
        },
        {
          "indexed": false,
          "internalType": "bool",
          "name": "approved",
          "type": "bool"
        }
      ],
      "name": "ApprovalForAll",
      "type": "event"
    },
    {
      "anonymous": false,
      "inputs": [
        {
          "indexed": false,
          "internalType": "address",
          "name": "to",
          "type": "address"
        },
        {
          "indexed": false,
          "internalType": "uint256",
          "name": "ethAmount",
          "type": "uint256"
        },
        {
          "indexed": false,
          "internalType": "uint256",
          "name": "quantity",
          "type": "uint256"
        },
        {
          "indexed": false,
          "internalType": "uint256",
          "name": "timestamp",
          "type": "uint256"
        }
      ],
      "name": "BuyNft",
      "type": "event"
    },
    {
      "anonymous": false,
      "inputs": [
        {
          "indexed": true,
          "internalType": "uint256",
          "name": "fromTokenId",
          "type": "uint256"
        },
        {
          "indexed": false,
          "internalType": "uint256",
          "name": "toTokenId",
          "type": "uint256"
        },
        {
          "indexed": true,
          "internalType": "address",
          "name": "from",
          "type": "address"
        },
        {
          "indexed": true,
          "internalType": "address",
          "name": "to",
          "type": "address"
        }
      ],
      "name": "ConsecutiveTransfer",
      "type": "event"
    },
    {
      "anonymous": false,
      "inputs": [
        {
          "indexed": true,
          "internalType": "address",
          "name": "previousOwner",
          "type": "address"
        },
        {
          "indexed": true,
          "internalType": "address",
          "name": "newOwner",
          "type": "address"
        }
      ],
      "name": "OwnershipTransferred",
      "type": "event"
    },
    {
      "anonymous": false,
      "inputs": [
        {
          "indexed": true,
          "internalType": "address",
          "name": "from",
          "type": "address"
        },
        {
          "indexed": true,
          "internalType": "address",
          "name": "to",
          "type": "address"
        },
        {
          "indexed": true,
          "internalType": "uint256",
          "name": "tokenId",
          "type": "uint256"
        }
      ],
      "name": "Transfer",
      "type": "event"
    },
    {
      "inputs": [],
      "name": "antibot",
      "outputs": [
        {
          "internalType": "bool",
          "name": "",
          "type": "bool"
        }
      ],
      "stateMutability": "view",
      "type": "function"
    },
    {
      "inputs": [
        {
          "internalType": "address",
          "name": "to",
          "type": "address"
        },
        {
          "internalType": "uint256",
          "name": "tokenId",
          "type": "uint256"
        }
      ],
      "name": "approve",
      "outputs": [],
      "stateMutability": "payable",
      "type": "function"
    },
    {
      "inputs": [
        {
          "internalType": "address",
          "name": "owner",
          "type": "address"
        }
      ],
      "name": "balanceOf",
      "outputs": [
        {
          "internalType": "uint256",
          "name": "",
          "type": "uint256"
        }
      ],
      "stateMutability": "view",
      "type": "function"
    },
    {
      "inputs": [],
      "name": "endTime",
      "outputs": [
        {
          "internalType": "uint112",
          "name": "",
          "type": "uint112"
        }
      ],
      "stateMutability": "view",
      "type": "function"
    },
    {
      "inputs": [
        {
          "internalType": "uint256",
          "name": "tokenId",
          "type": "uint256"
        }
      ],
      "name": "explicitOwnershipOf",
      "outputs": [
        {
          "components": [
            {
              "internalType": "address",
              "name": "addr",
              "type": "address"
            },
            {
              "internalType": "uint64",
              "name": "startTimestamp",
              "type": "uint64"
            },
            {
              "internalType": "bool",
              "name": "burned",
              "type": "bool"
            },
            {
              "internalType": "uint24",
              "name": "extraData",
              "type": "uint24"
            }
          ],
          "internalType": "struct IERC721A.TokenOwnership",
          "name": "",
          "type": "tuple"
        }
      ],
      "stateMutability": "view",
      "type": "function"
    },
    {
      "inputs": [
        {
          "internalType": "uint256[]",
          "name": "tokenIds",
          "type": "uint256[]"
        }
      ],
      "name": "explicitOwnershipsOf",
      "outputs": [
        {
          "components": [
            {
              "internalType": "address",
              "name": "addr",
              "type": "address"
            },
            {
              "internalType": "uint64",
              "name": "startTimestamp",
              "type": "uint64"
            },
            {
              "internalType": "bool",
              "name": "burned",
              "type": "bool"
            },
            {
              "internalType": "uint24",
              "name": "extraData",
              "type": "uint24"
            }
          ],
          "internalType": "struct IERC721A.TokenOwnership[]",
          "name": "",
          "type": "tuple[]"
        }
      ],
      "stateMutability": "view",
      "type": "function"
    },
    {
      "inputs": [
        {
          "internalType": "uint256",
          "name": "tokenId",
          "type": "uint256"
        }
      ],
      "name": "getApproved",
      "outputs": [
        {
          "internalType": "address",
          "name": "",
          "type": "address"
        }
      ],
      "stateMutability": "view",
      "type": "function"
    },
    {
      "inputs": [
        {
          "internalType": "address",
          "name": "owner",
          "type": "address"
        },
        {
          "internalType": "address",
          "name": "operator",
          "type": "address"
        }
      ],
      "name": "isApprovedForAll",
      "outputs": [
        {
          "internalType": "bool",
          "name": "",
          "type": "bool"
        }
      ],
      "stateMutability": "view",
      "type": "function"
    },
    {
      "inputs": [],
      "name": "maxSupply",
      "outputs": [
        {
          "internalType": "uint112",
          "name": "",
          "type": "uint112"
        }
      ],
      "stateMutability": "view",
      "type": "function"
    },
    {
      "inputs": [],
      "name": "name",
      "outputs": [
        {
          "internalType": "string",
          "name": "",
          "type": "string"
        }
      ],
      "stateMutability": "view",
      "type": "function"
    },
    {
      "inputs": [],
      "name": "owner",
      "outputs": [
        {
          "internalType": "address",
          "name": "",
          "type": "address"
        }
      ],
      "stateMutability": "view",
      "type": "function"
    },
    {
      "inputs": [
        {
          "internalType": "uint256",
          "name": "tokenId",
          "type": "uint256"
        }
      ],
      "name": "ownerOf",
      "outputs": [
        {
          "internalType": "address",
          "name": "",
          "type": "address"
        }
      ],
      "stateMutability": "view",
      "type": "function"
    },
    {
      "inputs": [],
      "name": "renounceOwnership",
      "outputs": [],
      "stateMutability": "nonpayable",
      "type": "function"
    },
    {
      "inputs": [
        {
          "internalType": "address",
          "name": "from",
          "type": "address"
        },
        {
          "internalType": "address",
          "name": "to",
          "type": "address"
        },
        {
          "internalType": "uint256",
          "name": "tokenId",
          "type": "uint256"
        }
      ],
      "name": "safeTransferFrom",
      "outputs": [],
      "stateMutability": "payable",
      "type": "function"
    },
    {
      "inputs": [
        {
          "internalType": "address",
          "name": "from",
          "type": "address"
        },
        {
          "internalType": "address",
          "name": "to",
          "type": "address"
        },
        {
          "internalType": "uint256",
          "name": "tokenId",
          "type": "uint256"
        },
        {
          "internalType": "bytes",
          "name": "_data",
          "type": "bytes"
        }
      ],
      "name": "safeTransferFrom",
      "outputs": [],
      "stateMutability": "payable",
      "type": "function"
    },
    {
      "inputs": [
        {
          "internalType": "address",
          "name": "operator",
          "type": "address"
        },
        {
          "internalType": "bool",
          "name": "approved",
          "type": "bool"
        }
      ],
      "name": "setApprovalForAll",
      "outputs": [],
      "stateMutability": "nonpayable",
      "type": "function"
    },
    {
      "inputs": [],
      "name": "startTime",
      "outputs": [
        {
          "internalType": "uint112",
          "name": "",
          "type": "uint112"
        }
      ],
      "stateMutability": "view",
      "type": "function"
    },
    {
      "inputs": [
        {
          "internalType": "bytes4",
          "name": "interfaceId",
          "type": "bytes4"
        }
      ],
      "name": "supportsInterface",
      "outputs": [
        {
          "internalType": "bool",
          "name": "",
          "type": "bool"
        }
      ],
      "stateMutability": "view",
      "type": "function"
    },
    {
      "inputs": [],
      "name": "symbol",
      "outputs": [
        {
          "internalType": "string",
          "name": "",
          "type": "string"
        }
      ],
      "stateMutability": "view",
      "type": "function"
    },
    {
      "inputs": [],
      "name": "tokenPrice",
      "outputs": [
        {
          "internalType": "uint112",
          "name": "",
          "type": "uint112"
        }
      ],
      "stateMutability": "view",
      "type": "function"
    },
    {
      "inputs": [
        {
          "internalType": "uint256",
          "name": "tokenId",
          "type": "uint256"
        }
      ],
      "name": "tokenURI",
      "outputs": [
        {
          "internalType": "string",
          "name": "",
          "type": "string"
        }
      ],
      "stateMutability": "view",
      "type": "function"
    },
    {
      "inputs": [
        {
          "internalType": "address",
          "name": "owner",
          "type": "address"
        }
      ],
      "name": "tokensOfOwner",
      "outputs": [
        {
          "internalType": "uint256[]",
          "name": "",
          "type": "uint256[]"
        }
      ],
      "stateMutability": "view",
      "type": "function"
    },
    {
      "inputs": [
        {
          "internalType": "address",
          "name": "owner",
          "type": "address"
        },
        {
          "internalType": "uint256",
          "name": "start",
          "type": "uint256"
        },
        {
          "internalType": "uint256",
          "name": "stop",
          "type": "uint256"
        }
      ],
      "name": "tokensOfOwnerIn",
      "outputs": [
        {
          "internalType": "uint256[]",
          "name": "",
          "type": "uint256[]"
        }
      ],
      "stateMutability": "view",
      "type": "function"
    },
    {
      "inputs": [],
      "name": "totalSupply",
      "outputs": [
        {
          "internalType": "uint256",
          "name": "",
          "type": "uint256"
        }
      ],
      "stateMutability": "view",
      "type": "function"
    },
    {
      "inputs": [
        {
          "internalType": "address",
          "name": "from",
          "type": "address"
        },
        {
          "internalType": "address",
          "name": "to",
          "type": "address"
        },
        {
          "internalType": "uint256",
          "name": "tokenId",
          "type": "uint256"
        }
      ],
      "name": "transferFrom",
      "outputs": [],
      "stateMutability": "payable",
      "type": "function"
    },
    {
      "inputs": [
        {
          "internalType": "address",
          "name": "newOwner",
          "type": "address"
        }
      ],
      "name": "transferOwnership",
      "outputs": [],
      "stateMutability": "nonpayable",
      "type": "function"
    },
    {
      "inputs": [
        {
          "internalType": "string",
          "name": "_newUri",
          "type": "string"
        }
      ],
      "name": "setBaseUri",
      "outputs": [],
      "stateMutability": "nonpayable",
      "type": "function"
    },
    {
      "inputs": [],
      "name": "buyNft",
      "outputs": [],
      "stateMutability": "payable",
      "type": "function"
    },
    {
      "inputs": [
        {
          "internalType": "bool",
          "name": "_state",
          "type": "bool"
        }
      ],
      "name": "setAntibot",
      "outputs": [],
      "stateMutability": "nonpayable",
      "type": "function"
    }
  ],
  "bytecode": "0x60806040523480156200001157600080fd5b5060405162003ad038038062003ad0833981810160405281019062000037919062000564565b87878160029080519060200190620000519291906200028f565b5080600390805190602001906200006a9291906200028f565b506200007b620001b860201b60201c565b6000819055505050620000a362000097620001c160201b60201c565b620001c960201b60201c565b84600960006101000a8154816dffffffffffffffffffffffffffff02191690836dffffffffffffffffffffffffffff160217905550836009600e6101000a8154816dffffffffffffffffffffffffffff02191690836dffffffffffffffffffffffffffff16021790555082600860146101000a81548160ff02191690831515021790555085600b90805190602001906200013f9291906200028f565b5081600a60006101000a8154816dffffffffffffffffffffffffffff02191690836dffffffffffffffffffffffffffff16021790555080600a600e6101000a8154816dffffffffffffffffffffffffffff02191690836dffffffffffffffffffffffffffff1602179055505050505050505050620006ee565b60006001905090565b600033905090565b6000600860009054906101000a900473ffffffffffffffffffffffffffffffffffffffff16905081600860006101000a81548173ffffffffffffffffffffffffffffffffffffffff021916908373ffffffffffffffffffffffffffffffffffffffff1602179055508173ffffffffffffffffffffffffffffffffffffffff168173ffffffffffffffffffffffffffffffffffffffff167f8be0079c531659141344cd1fd0a4f28419497f9722a3daafe3b4186f6b6457e060405160405180910390a35050565b8280546200029d90620006b9565b90600052602060002090601f016020900481019282620002c157600085556200030d565b82601f10620002dc57805160ff19168380011785556200030d565b828001600101855582156200030d579182015b828111156200030c578251825591602001919060010190620002ef565b5b5090506200031c919062000320565b5090565b5b808211156200033b57600081600090555060010162000321565b5090565b6000604051905090565b600080fd5b600080fd5b600080fd5b600080fd5b6000601f19601f8301169050919050565b7f4e487b7100000000000000000000000000000000000000000000000000000000600052604160045260246000fd5b620003a8826200035d565b810181811067ffffffffffffffff82111715620003ca57620003c96200036e565b5b80604052505050565b6000620003df6200033f565b9050620003ed82826200039d565b919050565b600067ffffffffffffffff82111562000410576200040f6200036e565b5b6200041b826200035d565b9050602081019050919050565b60005b83811015620004485780820151818401526020810190506200042b565b8381111562000458576000848401525b50505050565b6000620004756200046f84620003f2565b620003d3565b90508281526020810184848401111562000494576200049362000358565b5b620004a184828562000428565b509392505050565b600082601f830112620004c157620004c062000353565b5b8151620004d38482602086016200045e565b91505092915050565b60006dffffffffffffffffffffffffffff82169050919050565b6200050181620004dc565b81146200050d57600080fd5b50565b6000815190506200052181620004f6565b92915050565b60008115159050919050565b6200053e8162000527565b81146200054a57600080fd5b50565b6000815190506200055e8162000533565b92915050565b600080600080600080600080610100898b03121562000588576200058762000349565b5b600089015167ffffffffffffffff811115620005a957620005a86200034e565b5b620005b78b828c01620004a9565b985050602089015167ffffffffffffffff811115620005db57620005da6200034e565b5b620005e98b828c01620004a9565b975050604089015167ffffffffffffffff8111156200060d576200060c6200034e565b5b6200061b8b828c01620004a9565b96505060606200062e8b828c0162000510565b9550506080620006418b828c0162000510565b94505060a0620006548b828c016200054d565b93505060c0620006678b828c0162000510565b92505060e06200067a8b828c0162000510565b9150509295985092959890939650565b7f4e487b7100000000000000000000000000000000000000000000000000000000600052602260045260246000fd5b60006002820490506001821680620006d257607f821691505b602082108103620006e857620006e76200068a565b5b50919050565b6133d280620006fe6000396000f3fe6080604052600436106101c25760003560e01c80637ff9b596116100f7578063b88d4fde11610095578063e69257c211610064578063e69257c214610648578063e71804cd14610652578063e985e9c51461067b578063f2fde38b146106b8576101c2565b8063b88d4fde14610587578063c23dc68f146105a3578063c87b56dd146105e0578063d5abeb011461061d576101c2565b806395d89b41116100d157806395d89b41146104cd57806399a2557a146104f8578063a0bcfc7f14610535578063a22cb4651461055e576101c2565b80637ff9b5961461043a5780638462151c146104655780638da5cb5b146104a2576101c2565b80633197cbb6116101645780636352211e1161013e5780636352211e1461037e57806370a08231146103bb578063715018a6146103f857806378e979251461040f576101c2565b80633197cbb6146102fa57806342842e0e146103255780635bbb217714610341576101c2565b8063095ea7b3116101a0578063095ea7b31461026c57806318160ddd1461028857806323b872dd146102b3578063305c4c80146102cf576101c2565b806301ffc9a7146101c757806306fdde0314610204578063081812fc1461022f575b600080fd5b3480156101d357600080fd5b506101ee60048036038101906101e99190612436565b6106e1565b6040516101fb919061247e565b60405180910390f35b34801561021057600080fd5b50610219610773565b6040516102269190612532565b60405180910390f35b34801561023b57600080fd5b506102566004803603810190610251919061258a565b610805565b60405161026391906125f8565b60405180910390f35b6102866004803603810190610281919061263f565b610884565b005b34801561029457600080fd5b5061029d6109c8565b6040516102aa919061268e565b60405180910390f35b6102cd60048036038101906102c891906126a9565b6109df565b005b3480156102db57600080fd5b506102e4610d01565b6040516102f1919061247e565b60405180910390f35b34801561030657600080fd5b5061030f610d14565b60405161031c9190612725565b60405180910390f35b61033f600480360381019061033a91906126a9565b610d34565b005b34801561034d57600080fd5b50610368600480360381019061036391906127a5565b610d54565b6040516103759190612955565b60405180910390f35b34801561038a57600080fd5b506103a560048036038101906103a0919061258a565b610e17565b6040516103b291906125f8565b60405180910390f35b3480156103c757600080fd5b506103e260048036038101906103dd9190612977565b610e29565b6040516103ef919061268e565b60405180910390f35b34801561040457600080fd5b5061040d610ee1565b005b34801561041b57600080fd5b50610424610f69565b6040516104319190612725565b60405180910390f35b34801561044657600080fd5b5061044f610f89565b60405161045c9190612725565b60405180910390f35b34801561047157600080fd5b5061048c60048036038101906104879190612977565b610fa9565b6040516104999190612a62565b60405180910390f35b3480156104ae57600080fd5b506104b76110ec565b6040516104c491906125f8565b60405180910390f35b3480156104d957600080fd5b506104e2611116565b6040516104ef9190612532565b60405180910390f35b34801561050457600080fd5b5061051f600480360381019061051a9190612a84565b6111a8565b60405161052c9190612a62565b60405180910390f35b34801561054157600080fd5b5061055c60048036038101906105579190612c07565b6113b4565b005b34801561056a57600080fd5b5061058560048036038101906105809190612c7c565b61144a565b005b6105a1600480360381019061059c9190612d5d565b611555565b005b3480156105af57600080fd5b506105ca60048036038101906105c5919061258a565b6115c8565b6040516105d79190612e35565b60405180910390f35b3480156105ec57600080fd5b506106076004803603810190610602919061258a565b611632565b6040516106149190612532565b60405180910390f35b34801561062957600080fd5b506106326116d0565b60405161063f9190612725565b60405180910390f35b6106506116f0565b005b34801561065e57600080fd5b5061067960048036038101906106749190612e50565b61194c565b005b34801561068757600080fd5b506106a2600480360381019061069d9190612e7d565b611969565b6040516106af919061247e565b60405180910390f35b3480156106c457600080fd5b506106df60048036038101906106da9190612977565b6119fd565b005b60006301ffc9a760e01b827bffffffffffffffffffffffffffffffffffffffffffffffffffffffff1916148061073c57506380ac58cd60e01b827bffffffffffffffffffffffffffffffffffffffffffffffffffffffff1916145b8061076c5750635b5e139f60e01b827bffffffffffffffffffffffffffffffffffffffffffffffffffffffff1916145b9050919050565b60606002805461078290612eec565b80601f01602080910402602001604051908101604052809291908181526020018280546107ae90612eec565b80156107fb5780601f106107d0576101008083540402835291602001916107fb565b820191906000526020600020905b8154815290600101906020018083116107de57829003601f168201915b5050505050905090565b600061081082611af4565b610846576040517fcf4700e400000000000000000000000000000000000000000000000000000000815260040160405180910390fd5b6006600083815260200190815260200160002060000160009054906101000a900473ffffffffffffffffffffffffffffffffffffffff169050919050565b600061088f82610e17565b90508073ffffffffffffffffffffffffffffffffffffffff166108b0611b53565b73ffffffffffffffffffffffffffffffffffffffff1614610913576108dc816108d7611b53565b611969565b610912576040517fcfb3b94200000000000000000000000000000000000000000000000000000000815260040160405180910390fd5b5b826006600084815260200190815260200160002060000160006101000a81548173ffffffffffffffffffffffffffffffffffffffff021916908373ffffffffffffffffffffffffffffffffffffffff160217905550818373ffffffffffffffffffffffffffffffffffffffff168273ffffffffffffffffffffffffffffffffffffffff167f8c5be1e5ebec7d5bd14f71427d1e84f3dd0314c0f7b2291e5b200ac8c7c3b92560405160405180910390a4505050565b60006109d2611b5b565b6001546000540303905090565b60006109ea82611b64565b90508373ffffffffffffffffffffffffffffffffffffffff168173ffffffffffffffffffffffffffffffffffffffff1614610a51576040517fa114810000000000000000000000000000000000000000000000000000000000815260040160405180910390fd5b600080610a5d84611c30565b91509150610a738187610a6e611b53565b611c57565b610abf57610a8886610a83611b53565b611969565b610abe576040517f59c896be00000000000000000000000000000000000000000000000000000000815260040160405180910390fd5b5b600073ffffffffffffffffffffffffffffffffffffffff168573ffffffffffffffffffffffffffffffffffffffff1603610b25576040517fea553b3400000000000000000000000000000000000000000000000000000000815260040160405180910390fd5b610b328686866001611c9b565b8015610b3d57600082555b600560008773ffffffffffffffffffffffffffffffffffffffff1673ffffffffffffffffffffffffffffffffffffffff168152602001908152602001600020600081546001900391905081905550600560008673ffffffffffffffffffffffffffffffffffffffff1673ffffffffffffffffffffffffffffffffffffffff1681526020019081526020016000206000815460010191905081905550610c0b85610be7888887611ca1565b7c020000000000000000000000000000000000000000000000000000000017611cc9565b600460008681526020019081526020016000208190555060007c0200000000000000000000000000000000000000000000000000000000841603610c915760006001850190506000600460008381526020019081526020016000205403610c8f576000548114610c8e578360046000838152602001908152602001600020819055505b5b505b838573ffffffffffffffffffffffffffffffffffffffff168773ffffffffffffffffffffffffffffffffffffffff167fddf252ad1be2c89b69c2b068fc378daa952ba7f163c4a11628f55a4df523b3ef60405160405180910390a4610cf98686866001611cf4565b505050505050565b600860149054906101000a900460ff1681565b600a600e9054906101000a90046dffffffffffffffffffffffffffff1681565b610d4f83838360405180602001604052806000815250611555565b505050565b6060600083839050905060008167ffffffffffffffff811115610d7a57610d79612adc565b5b604051908082528060200260200182016040528015610db357816020015b610da06122d8565b815260200190600190039081610d985790505b50905060005b828114610e0b57610de2868683818110610dd657610dd5612f1d565b5b905060200201356115c8565b828281518110610df557610df4612f1d565b5b6020026020010181905250806001019050610db9565b50809250505092915050565b6000610e2282611b64565b9050919050565b60008073ffffffffffffffffffffffffffffffffffffffff168273ffffffffffffffffffffffffffffffffffffffff1603610e90576040517f8f4eb60400000000000000000000000000000000000000000000000000000000815260040160405180910390fd5b67ffffffffffffffff600560008473ffffffffffffffffffffffffffffffffffffffff1673ffffffffffffffffffffffffffffffffffffffff16815260200190815260200160002054169050919050565b610ee9611cfa565b73ffffffffffffffffffffffffffffffffffffffff16610f076110ec565b73ffffffffffffffffffffffffffffffffffffffff1614610f5d576040517f08c379a0000000000000000000000000000000000000000000000000000000008152600401610f5490612f98565b60405180910390fd5b610f676000611d02565b565b600a60009054906101000a90046dffffffffffffffffffffffffffff1681565b600960009054906101000a90046dffffffffffffffffffffffffffff1681565b60606000806000610fb985610e29565b905060008167ffffffffffffffff811115610fd757610fd6612adc565b5b6040519080825280602002602001820160405280156110055781602001602082028036833780820191505090505b5090506110106122d8565b600061101a611b5b565b90505b8386146110de5761102d81611dc8565b915081604001516110d357600073ffffffffffffffffffffffffffffffffffffffff16826000015173ffffffffffffffffffffffffffffffffffffffff161461107857816000015194505b8773ffffffffffffffffffffffffffffffffffffffff168573ffffffffffffffffffffffffffffffffffffffff16036110d257808387806001019850815181106110c5576110c4612f1d565b5b6020026020010181815250505b5b80600101905061101d565b508195505050505050919050565b6000600860009054906101000a900473ffffffffffffffffffffffffffffffffffffffff16905090565b60606003805461112590612eec565b80601f016020809104026020016040519081016040528092919081815260200182805461115190612eec565b801561119e5780601f106111735761010080835404028352916020019161119e565b820191906000526020600020905b81548152906001019060200180831161118157829003601f168201915b5050505050905090565b60608183106111e3576040517f32c1995a00000000000000000000000000000000000000000000000000000000815260040160405180910390fd5b6000806111ee611df3565b90506111f8611b5b565b85101561120a57611207611b5b565b94505b80841115611216578093505b600061122187610e29565b90508486101561124457600086860390508181101561123e578091505b50611249565b600090505b60008167ffffffffffffffff81111561126557611264612adc565b5b6040519080825280602002602001820160405280156112935781602001602082028036833780820191505090505b509050600082036112aa57809450505050506113ad565b60006112b5886115c8565b9050600081604001516112ca57816000015190505b60008990505b8881141580156112e05750848714155b1561139f576112ee81611dc8565b9250826040015161139457600073ffffffffffffffffffffffffffffffffffffffff16836000015173ffffffffffffffffffffffffffffffffffffffff161461133957826000015191505b8a73ffffffffffffffffffffffffffffffffffffffff168273ffffffffffffffffffffffffffffffffffffffff1603611393578084888060010199508151811061138657611385612f1d565b5b6020026020010181815250505b5b8060010190506112d0565b508583528296505050505050505b9392505050565b6113bc611cfa565b73ffffffffffffffffffffffffffffffffffffffff166113da6110ec565b73ffffffffffffffffffffffffffffffffffffffff1614611430576040517f08c379a000000000000000000000000000000000000000000000000000000000815260040161142790612f98565b60405180910390fd5b80600b9080519060200190611446929190612327565b5050565b8060076000611457611b53565b73ffffffffffffffffffffffffffffffffffffffff1673ffffffffffffffffffffffffffffffffffffffff16815260200190815260200160002060008473ffffffffffffffffffffffffffffffffffffffff1673ffffffffffffffffffffffffffffffffffffffff16815260200190815260200160002060006101000a81548160ff0219169083151502179055508173ffffffffffffffffffffffffffffffffffffffff16611504611b53565b73ffffffffffffffffffffffffffffffffffffffff167f17307eab39ab6107e8899845ad3d59bd9653f200f220920489ca2b5937696c3183604051611549919061247e565b60405180910390a35050565b6115608484846109df565b60008373ffffffffffffffffffffffffffffffffffffffff163b146115c25761158b84848484611dfc565b6115c1576040517fd1a57ed600000000000000000000000000000000000000000000000000000000815260040160405180910390fd5b5b50505050565b6115d06122d8565b6115d86122d8565b6115e0611b5b565b8310806115f457506115f0611df3565b8310155b15611602578091505061162d565b61160b83611dc8565b9050806040015115611620578091505061162d565b61162983611f4c565b9150505b919050565b606061163d82611af4565b611673576040517fa14c4b5000000000000000000000000000000000000000000000000000000000815260040160405180910390fd5b600061167d611f6c565b9050600081510361169d57604051806020016040528060008152506116c8565b806116a784611ffe565b6040516020016116b8929190612ff4565b6040516020818303038152906040525b915050919050565b6009600e9054906101000a90046dffffffffffffffffffffffffffff1681565b600960009054906101000a90046dffffffffffffffffffffffffffff166dffffffffffffffffffffffffffff16341161175e576040517f08c379a000000000000000000000000000000000000000000000000000000000815260040161175590613064565b60405180910390fd5b42600a60009054906101000a90046dffffffffffffffffffffffffffff166dffffffffffffffffffffffffffff161080156117c4575042600a600e9054906101000a90046dffffffffffffffffffffffffffff166dffffffffffffffffffffffffffff16115b611803576040517f08c379a00000000000000000000000000000000000000000000000000000000081526004016117fa906130d0565b60405180910390fd5b600860149054906101000a900460ff161561187857655af3107a40003373ffffffffffffffffffffffffffffffffffffffff163111611877576040517f08c379a000000000000000000000000000000000000000000000000000000000815260040161186e90613162565b60405180910390fd5b5b6000600960009054906101000a90046dffffffffffffffffffffffffffff166dffffffffffffffffffffffffffff16346118b291906131b1565b90506118bc6110ec565b73ffffffffffffffffffffffffffffffffffffffff166108fc349081150290604051600060405180830381858888f19350505050158015611901573d6000803e3d6000fd5b5061190c338261204e565b7fb662b8feec5dabf7be69e2c823d2f59ba01d845f35dc98f4ade3c9f98acfef053334834260405161194194939291906131e2565b60405180910390a150565b80600860146101000a81548160ff02191690831515021790555050565b6000600760008473ffffffffffffffffffffffffffffffffffffffff1673ffffffffffffffffffffffffffffffffffffffff16815260200190815260200160002060008373ffffffffffffffffffffffffffffffffffffffff1673ffffffffffffffffffffffffffffffffffffffff16815260200190815260200160002060009054906101000a900460ff16905092915050565b611a05611cfa565b73ffffffffffffffffffffffffffffffffffffffff16611a236110ec565b73ffffffffffffffffffffffffffffffffffffffff1614611a79576040517f08c379a0000000000000000000000000000000000000000000000000000000008152600401611a7090612f98565b60405180910390fd5b600073ffffffffffffffffffffffffffffffffffffffff168173ffffffffffffffffffffffffffffffffffffffff1603611ae8576040517f08c379a0000000000000000000000000000000000000000000000000000000008152600401611adf90613299565b60405180910390fd5b611af181611d02565b50565b600081611aff611b5b565b11158015611b0e575060005482105b8015611b4c575060007c0100000000000000000000000000000000000000000000000000000000600460008581526020019081526020016000205416145b9050919050565b600033905090565b60006001905090565b60008082905080611b73611b5b565b11611bf957600054811015611bf85760006004600083815260200190815260200160002054905060007c0100000000000000000000000000000000000000000000000000000000821603611bf6575b60008103611bec576004600083600190039350838152602001908152602001600020549050611bc2565b8092505050611c2b565b505b5b6040517fdf2d9b4200000000000000000000000000000000000000000000000000000000815260040160405180910390fd5b919050565b60008060006006600085815260200190815260200160002090508092508254915050915091565b600073ffffffffffffffffffffffffffffffffffffffff8316925073ffffffffffffffffffffffffffffffffffffffff821691508382148383141790509392505050565b50505050565b60008060e883901c905060e8611cb8868684612209565b62ffffff16901b9150509392505050565b600073ffffffffffffffffffffffffffffffffffffffff83169250814260a01b178317905092915050565b50505050565b600033905090565b6000600860009054906101000a900473ffffffffffffffffffffffffffffffffffffffff16905081600860006101000a81548173ffffffffffffffffffffffffffffffffffffffff021916908373ffffffffffffffffffffffffffffffffffffffff1602179055508173ffffffffffffffffffffffffffffffffffffffff168173ffffffffffffffffffffffffffffffffffffffff167f8be0079c531659141344cd1fd0a4f28419497f9722a3daafe3b4186f6b6457e060405160405180910390a35050565b611dd06122d8565b611dec6004600084815260200190815260200160002054612212565b9050919050565b60008054905090565b60008373ffffffffffffffffffffffffffffffffffffffff1663150b7a02611e22611b53565b8786866040518563ffffffff1660e01b8152600401611e44949392919061330e565b6020604051808303816000875af1925050508015611e8057506040513d601f19601f82011682018060405250810190611e7d919061336f565b60015b611ef9573d8060008114611eb0576040519150601f19603f3d011682016040523d82523d6000602084013e611eb5565b606091505b506000815103611ef1576040517fd1a57ed600000000000000000000000000000000000000000000000000000000815260040160405180910390fd5b805181602001fd5b63150b7a0260e01b7bffffffffffffffffffffffffffffffffffffffffffffffffffffffff1916817bffffffffffffffffffffffffffffffffffffffffffffffffffffffff191614915050949350505050565b611f546122d8565b611f65611f6083611b64565b612212565b9050919050565b6060600b8054611f7b90612eec565b80601f0160208091040260200160405190810160405280929190818152602001828054611fa790612eec565b8015611ff45780601f10611fc957610100808354040283529160200191611ff4565b820191906000526020600020905b815481529060010190602001808311611fd757829003601f168201915b5050505050905090565b606060a060405101806040526020810391506000825281835b60011561203957600184039350600a81066030018453600a8104905080612017575b50828103602084039350808452505050919050565b6000805490506000820361208e576040517fb562e8dd00000000000000000000000000000000000000000000000000000000815260040160405180910390fd5b61209b6000848385611c9b565b600160406001901b178202600560008573ffffffffffffffffffffffffffffffffffffffff1673ffffffffffffffffffffffffffffffffffffffff16815260200190815260200160002060008282540192505081905550612112836121036000866000611ca1565b61210c856122c8565b17611cc9565b6004600083815260200190815260200160002081905550600080838301905073ffffffffffffffffffffffffffffffffffffffff85169150828260007fddf252ad1be2c89b69c2b068fc378daa952ba7f163c4a11628f55a4df523b3ef600080a4600183015b8181146121b357808360007fddf252ad1be2c89b69c2b068fc378daa952ba7f163c4a11628f55a4df523b3ef600080a4600181019050612178565b50600082036121ee576040517f2e07630000000000000000000000000000000000000000000000000000000000815260040160405180910390fd5b8060008190555050506122046000848385611cf4565b505050565b60009392505050565b61221a6122d8565b81816000019073ffffffffffffffffffffffffffffffffffffffff16908173ffffffffffffffffffffffffffffffffffffffff168152505060a082901c816020019067ffffffffffffffff16908167ffffffffffffffff168152505060007c01000000000000000000000000000000000000000000000000000000008316141581604001901515908115158152505060e882901c816060019062ffffff16908162ffffff1681525050919050565b60006001821460e11b9050919050565b6040518060800160405280600073ffffffffffffffffffffffffffffffffffffffff168152602001600067ffffffffffffffff168152602001600015158152602001600062ffffff1681525090565b82805461233390612eec565b90600052602060002090601f016020900481019282612355576000855561239c565b82601f1061236e57805160ff191683800117855561239c565b8280016001018555821561239c579182015b8281111561239b578251825591602001919060010190612380565b5b5090506123a991906123ad565b5090565b5b808211156123c65760008160009055506001016123ae565b5090565b6000604051905090565b600080fd5b600080fd5b60007fffffffff0000000000000000000000000000000000000000000000000000000082169050919050565b612413816123de565b811461241e57600080fd5b50565b6000813590506124308161240a565b92915050565b60006020828403121561244c5761244b6123d4565b5b600061245a84828501612421565b91505092915050565b60008115159050919050565b61247881612463565b82525050565b6000602082019050612493600083018461246f565b92915050565b600081519050919050565b600082825260208201905092915050565b60005b838110156124d35780820151818401526020810190506124b8565b838111156124e2576000848401525b50505050565b6000601f19601f8301169050919050565b600061250482612499565b61250e81856124a4565b935061251e8185602086016124b5565b612527816124e8565b840191505092915050565b6000602082019050818103600083015261254c81846124f9565b905092915050565b6000819050919050565b61256781612554565b811461257257600080fd5b50565b6000813590506125848161255e565b92915050565b6000602082840312156125a05761259f6123d4565b5b60006125ae84828501612575565b91505092915050565b600073ffffffffffffffffffffffffffffffffffffffff82169050919050565b60006125e2826125b7565b9050919050565b6125f2816125d7565b82525050565b600060208201905061260d60008301846125e9565b92915050565b61261c816125d7565b811461262757600080fd5b50565b60008135905061263981612613565b92915050565b60008060408385031215612656576126556123d4565b5b60006126648582860161262a565b925050602061267585828601612575565b9150509250929050565b61268881612554565b82525050565b60006020820190506126a3600083018461267f565b92915050565b6000806000606084860312156126c2576126c16123d4565b5b60006126d08682870161262a565b93505060206126e18682870161262a565b92505060406126f286828701612575565b9150509250925092565b60006dffffffffffffffffffffffffffff82169050919050565b61271f816126fc565b82525050565b600060208201905061273a6000830184612716565b92915050565b600080fd5b600080fd5b600080fd5b60008083601f84011261276557612764612740565b5b8235905067ffffffffffffffff81111561278257612781612745565b5b60208301915083602082028301111561279e5761279d61274a565b5b9250929050565b600080602083850312156127bc576127bb6123d4565b5b600083013567ffffffffffffffff8111156127da576127d96123d9565b5b6127e68582860161274f565b92509250509250929050565b600081519050919050565b600082825260208201905092915050565b6000819050602082019050919050565b612827816125d7565b82525050565b600067ffffffffffffffff82169050919050565b61284a8161282d565b82525050565b61285981612463565b82525050565b600062ffffff82169050919050565b6128778161285f565b82525050565b608082016000820151612893600085018261281e565b5060208201516128a66020850182612841565b5060408201516128b96040850182612850565b5060608201516128cc606085018261286e565b50505050565b60006128de838361287d565b60808301905092915050565b6000602082019050919050565b6000612902826127f2565b61290c81856127fd565b93506129178361280e565b8060005b8381101561294857815161292f88826128d2565b975061293a836128ea565b92505060018101905061291b565b5085935050505092915050565b6000602082019050818103600083015261296f81846128f7565b905092915050565b60006020828403121561298d5761298c6123d4565b5b600061299b8482850161262a565b91505092915050565b600081519050919050565b600082825260208201905092915050565b6000819050602082019050919050565b6129d981612554565b82525050565b60006129eb83836129d0565b60208301905092915050565b6000602082019050919050565b6000612a0f826129a4565b612a1981856129af565b9350612a24836129c0565b8060005b83811015612a55578151612a3c88826129df565b9750612a47836129f7565b925050600181019050612a28565b5085935050505092915050565b60006020820190508181036000830152612a7c8184612a04565b905092915050565b600080600060608486031215612a9d57612a9c6123d4565b5b6000612aab8682870161262a565b9350506020612abc86828701612575565b9250506040612acd86828701612575565b9150509250925092565b600080fd5b7f4e487b7100000000000000000000000000000000000000000000000000000000600052604160045260246000fd5b612b14826124e8565b810181811067ffffffffffffffff82111715612b3357612b32612adc565b5b80604052505050565b6000612b466123ca565b9050612b528282612b0b565b919050565b600067ffffffffffffffff821115612b7257612b71612adc565b5b612b7b826124e8565b9050602081019050919050565b82818337600083830152505050565b6000612baa612ba584612b57565b612b3c565b905082815260208101848484011115612bc657612bc5612ad7565b5b612bd1848285612b88565b509392505050565b600082601f830112612bee57612bed612740565b5b8135612bfe848260208601612b97565b91505092915050565b600060208284031215612c1d57612c1c6123d4565b5b600082013567ffffffffffffffff811115612c3b57612c3a6123d9565b5b612c4784828501612bd9565b91505092915050565b612c5981612463565b8114612c6457600080fd5b50565b600081359050612c7681612c50565b92915050565b60008060408385031215612c9357612c926123d4565b5b6000612ca18582860161262a565b9250506020612cb285828601612c67565b9150509250929050565b600067ffffffffffffffff821115612cd757612cd6612adc565b5b612ce0826124e8565b9050602081019050919050565b6000612d00612cfb84612cbc565b612b3c565b905082815260208101848484011115612d1c57612d1b612ad7565b5b612d27848285612b88565b509392505050565b600082601f830112612d4457612d43612740565b5b8135612d54848260208601612ced565b91505092915050565b60008060008060808587031215612d7757612d766123d4565b5b6000612d858782880161262a565b9450506020612d968782880161262a565b9350506040612da787828801612575565b925050606085013567ffffffffffffffff811115612dc857612dc76123d9565b5b612dd487828801612d2f565b91505092959194509250565b608082016000820151612df6600085018261281e565b506020820151612e096020850182612841565b506040820151612e1c6040850182612850565b506060820151612e2f606085018261286e565b50505050565b6000608082019050612e4a6000830184612de0565b92915050565b600060208284031215612e6657612e656123d4565b5b6000612e7484828501612c67565b91505092915050565b60008060408385031215612e9457612e936123d4565b5b6000612ea28582860161262a565b9250506020612eb38582860161262a565b9150509250929050565b7f4e487b7100000000000000000000000000000000000000000000000000000000600052602260045260246000fd5b60006002820490506001821680612f0457607f821691505b602082108103612f1757612f16612ebd565b5b50919050565b7f4e487b7100000000000000000000000000000000000000000000000000000000600052603260045260246000fd5b7f4f776e61626c653a2063616c6c6572206973206e6f7420746865206f776e6572600082015250565b6000612f826020836124a4565b9150612f8d82612f4c565b602082019050919050565b60006020820190508181036000830152612fb181612f75565b9050919050565b600081905092915050565b6000612fce82612499565b612fd88185612fb8565b9350612fe88185602086016124b5565b80840191505092915050565b60006130008285612fc3565b915061300c8284612fc3565b91508190509392505050565b7f4861766520746f206275792061746c65617374206f6e65000000000000000000600082015250565b600061304e6017836124a4565b915061305982613018565b602082019050919050565b6000602082019050818103600083015261307d81613041565b9050919050565b7f456e646564206f72206e6f742073746172746564207965740000000000000000600082015250565b60006130ba6018836124a4565b91506130c582613084565b602082019050919050565b600060208201905081810360008301526130e9816130ad565b9050919050565b7f416e7469426f743a20496e73756666696369656e74206163636f756e7420626160008201527f6c616e6365000000000000000000000000000000000000000000000000000000602082015250565b600061314c6025836124a4565b9150613157826130f0565b604082019050919050565b6000602082019050818103600083015261317b8161313f565b9050919050565b7f4e487b7100000000000000000000000000000000000000000000000000000000600052601260045260246000fd5b60006131bc82612554565b91506131c783612554565b9250826131d7576131d6613182565b5b828204905092915050565b60006080820190506131f760008301876125e9565b613204602083018661267f565b613211604083018561267f565b61321e606083018461267f565b95945050505050565b7f4f776e61626c653a206e6577206f776e657220697320746865207a65726f206160008201527f6464726573730000000000000000000000000000000000000000000000000000602082015250565b60006132836026836124a4565b915061328e82613227565b604082019050919050565b600060208201905081810360008301526132b281613276565b9050919050565b600081519050919050565b600082825260208201905092915050565b60006132e0826132b9565b6132ea81856132c4565b93506132fa8185602086016124b5565b613303816124e8565b840191505092915050565b600060808201905061332360008301876125e9565b61333060208301866125e9565b61333d604083018561267f565b818103606083015261334f81846132d5565b905095945050505050565b6000815190506133698161240a565b92915050565b600060208284031215613385576133846123d4565b5b60006133938482850161335a565b9150509291505056fea26469706673582212207402b0ed67a785d37a91918cc6e11599f85067543914e14a327a3dfb0bd7df2764736f6c634300080d0033",
  "immutableReferences": {},
  "source": "// SPDX-License-Identifier: MIT\r\npragma solidity 0.8.13;\r\n\r\nimport \"erc721a/contracts/extensions/ERC721AQueryable.sol\";\r\nimport \"openzeppelin-solidity/contracts/access/Ownable.sol\";\r\n\r\ncontract NftQueryable is ERC721AQueryable, Ownable {\r\n  bool public antibot;\r\n\r\n  uint112 public tokenPrice;\r\n  uint112 public maxSupply;\r\n\r\n  uint112 public startTime;\r\n  uint112 public endTime;\r\n\r\n  string private baseUri;\r\n\r\n  event BuyNft(address to, uint256 ethAmount, uint256 quantity, uint256 timestamp);\r\n\r\n  constructor(string memory _name, string memory _symbol, string memory baseUri_, uint112 _nftPrice, uint112 _maxSupply, bool _antibot, uint112 _startTime, uint112 _endTime) ERC721A(_name, _symbol) {\r\n    tokenPrice = _nftPrice;\r\n    maxSupply = _maxSupply;\r\n    antibot = _antibot;\r\n    baseUri = baseUri_;\r\n    startTime = _startTime;\r\n    endTime = _endTime;\r\n  }\r\n\r\n  function _startTokenId() internal override view virtual returns (uint256) {\r\n    return 1;\r\n  }\r\n\r\n  function _baseURI() internal view virtual override returns (string memory) {\r\n    return baseUri;\r\n  }\r\n\r\n  function setBaseUri(string memory _newUri) external onlyOwner {\r\n    baseUri = _newUri;\r\n  }\r\n\r\n  function buyNft() public payable {\r\n    require(msg.value > tokenPrice, \"Have to buy atleast one\");\r\n    require(startTime < block.timestamp && endTime > block.timestamp, \"Ended or not started yet\");\r\n    if(antibot){\r\n      require(address(msg.sender).balance > 0.0001 ether, \"AntiBot: Insufficient account balance\");\r\n    }\r\n    uint quantity = msg.value/tokenPrice;\r\n    payable(owner()).transfer(msg.value);\r\n    _mint(msg.sender, quantity);\r\n    emit BuyNft(msg.sender, msg.value, quantity, block.timestamp);\r\n  } \r\n\r\n  function setAntibot(bool _state) public {\r\n    antibot = _state;\r\n  }\r\n}",
  "sourcePath": "C:\\Users\\JSON-BSON\\Documents\\blockboyBenji\\Launchpad\\main-template\\contracts\\contracts\\NftQueryable.sol",
  "compiler": {
    "name": "solc",
    "version": "0.8.13+commit.abaa5c0e.Emscripten.clang"
  },
  "schemaVersion": "3.4.7",
  "updatedAt": "2022-11-16T06:28:41.655Z",
  "devdoc": {
    "kind": "dev",
    "methods": {
      "approve(address,uint256)": {
        "details": "Gives permission to `to` to transfer `tokenId` token to another account. The approval is cleared when the token is transferred. Only a single account can be approved at a time, so approving the zero address clears previous approvals. Requirements: - The caller must own the token or be an approved operator. - `tokenId` must exist. Emits an {Approval} event."
      },
      "balanceOf(address)": {
        "details": "Returns the number of tokens in `owner`'s account."
      },
      "explicitOwnershipOf(uint256)": {
        "details": "Returns the `TokenOwnership` struct at `tokenId` without reverting. If the `tokenId` is out of bounds: - `addr = address(0)` - `startTimestamp = 0` - `burned = false` - `extraData = 0` If the `tokenId` is burned: - `addr = <Address of owner before token was burned>` - `startTimestamp = <Timestamp when token was burned>` - `burned = true` - `extraData = <Extra data when token was burned>` Otherwise: - `addr = <Address of owner>` - `startTimestamp = <Timestamp of start of ownership>` - `burned = false` - `extraData = <Extra data at start of ownership>`"
      },
      "explicitOwnershipsOf(uint256[])": {
        "details": "Returns an array of `TokenOwnership` structs at `tokenIds` in order. See {ERC721AQueryable-explicitOwnershipOf}"
      },
      "getApproved(uint256)": {
        "details": "Returns the account approved for `tokenId` token. Requirements: - `tokenId` must exist."
      },
      "isApprovedForAll(address,address)": {
        "details": "Returns if the `operator` is allowed to manage all of the assets of `owner`. See {setApprovalForAll}."
      },
      "name()": {
        "details": "Returns the token collection name."
      },
      "owner()": {
        "details": "Returns the address of the current owner."
      },
      "ownerOf(uint256)": {
        "details": "Returns the owner of the `tokenId` token. Requirements: - `tokenId` must exist."
      },
      "renounceOwnership()": {
        "details": "Leaves the contract without owner. It will not be possible to call `onlyOwner` functions anymore. Can only be called by the current owner. NOTE: Renouncing ownership will leave the contract without an owner, thereby removing any functionality that is only available to the owner."
      },
      "safeTransferFrom(address,address,uint256)": {
        "details": "Equivalent to `safeTransferFrom(from, to, tokenId, '')`."
      },
      "safeTransferFrom(address,address,uint256,bytes)": {
        "details": "Safely transfers `tokenId` token from `from` to `to`. Requirements: - `from` cannot be the zero address. - `to` cannot be the zero address. - `tokenId` token must exist and be owned by `from`. - If the caller is not `from`, it must be approved to move this token by either {approve} or {setApprovalForAll}. - If `to` refers to a smart contract, it must implement {IERC721Receiver-onERC721Received}, which is called upon a safe transfer. Emits a {Transfer} event."
      },
      "setApprovalForAll(address,bool)": {
        "details": "Approve or remove `operator` as an operator for the caller. Operators can call {transferFrom} or {safeTransferFrom} for any token owned by the caller. Requirements: - The `operator` cannot be the caller. Emits an {ApprovalForAll} event."
      },
      "supportsInterface(bytes4)": {
        "details": "Returns true if this contract implements the interface defined by `interfaceId`. See the corresponding [EIP section](https://eips.ethereum.org/EIPS/eip-165#how-interfaces-are-identified) to learn more about how these ids are created. This function call must use less than 30000 gas."
      },
      "symbol()": {
        "details": "Returns the token collection symbol."
      },
      "tokenURI(uint256)": {
        "details": "Returns the Uniform Resource Identifier (URI) for `tokenId` token."
      },
      "tokensOfOwner(address)": {
        "details": "Returns an array of token IDs owned by `owner`. This function scans the ownership mapping and is O(`totalSupply`) in complexity. It is meant to be called off-chain. See {ERC721AQueryable-tokensOfOwnerIn} for splitting the scan into multiple smaller scans if the collection is large enough to cause an out-of-gas error (10K collections should be fine)."
      },
      "tokensOfOwnerIn(address,uint256,uint256)": {
        "details": "Returns an array of token IDs owned by `owner`, in the range [`start`, `stop`) (i.e. `start <= tokenId < stop`). This function allows for tokens to be queried if the collection grows too big for a single call of {ERC721AQueryable-tokensOfOwner}. Requirements: - `start < stop`"
      },
      "totalSupply()": {
        "details": "Returns the total number of tokens in existence. Burned tokens will reduce the count. To get the total number of tokens minted, please see {_totalMinted}."
      },
      "transferFrom(address,address,uint256)": {
        "details": "Transfers `tokenId` from `from` to `to`. Requirements: - `from` cannot be the zero address. - `to` cannot be the zero address. - `tokenId` token must be owned by `from`. - If the caller is not `from`, it must be approved to move this token by either {approve} or {setApprovalForAll}. Emits a {Transfer} event."
      },
      "transferOwnership(address)": {
        "details": "Transfers ownership of the contract to a new account (`newOwner`). Can only be called by the current owner."
      }
    },
    "version": 1
  },
  "userdoc": {
    "errors": {
      "ApprovalCallerNotOwnerNorApproved()": [
        {
          "notice": "The caller must own the token or be an approved operator."
        }
      ],
      "ApprovalQueryForNonexistentToken()": [
        {
          "notice": "The token does not exist."
        }
      ],
      "BalanceQueryForZeroAddress()": [
        {
          "notice": "Cannot query the balance for the zero address."
        }
      ],
      "InvalidQueryRange()": [
        {
          "notice": "Invalid query range (`start` >= `stop`)."
        }
      ],
      "MintERC2309QuantityExceedsLimit()": [
        {
          "notice": "The `quantity` minted with ERC2309 exceeds the safety limit."
        }
      ],
      "MintToZeroAddress()": [
        {
          "notice": "Cannot mint to the zero address."
        }
      ],
      "MintZeroQuantity()": [
        {
          "notice": "The quantity of tokens minted must be more than zero."
        }
      ],
      "OwnerQueryForNonexistentToken()": [
        {
          "notice": "The token does not exist."
        }
      ],
      "OwnershipNotInitializedForExtraData()": [
        {
          "notice": "The `extraData` cannot be set on an unintialized ownership slot."
        }
      ],
      "TransferCallerNotOwnerNorApproved()": [
        {
          "notice": "The caller must own the token or be an approved operator."
        }
      ],
      "TransferFromIncorrectOwner()": [
        {
          "notice": "The token must be owned by `from`."
        }
      ],
      "TransferToNonERC721ReceiverImplementer()": [
        {
          "notice": "Cannot safely transfer to a contract that does not implement the ERC721Receiver interface."
        }
      ],
      "TransferToZeroAddress()": [
        {
          "notice": "Cannot transfer to the zero address."
        }
      ],
      "URIQueryForNonexistentToken()": [
        {
          "notice": "The token does not exist."
        }
      ]
    },
    "kind": "user",
    "methods": {},
    "version": 1
  }
}